:100000000C9462000C948A000C948A000C948A0070
:100010000C948A000C948A000C948A000C948A0038
:100020000C948A000C948A000C948A000C948A0028
:100030000C948A000C948A000C948A000C948A0018
:100040000C943B030C948A000C948A000C948A0054
:100050000C948A000C948A000C948A000C948A00F8
:100060000C9485030C948A000000000023002600F5
:10007000290000000008000201000003040700003E
:1000800000000000000000000000250028002B00F8
:1000900000000000240027002A00040404040404D3
:1000A0000404020202020202030303030303010227
:1000B00004081020408001020408102001020408F6
:1000C0001020A00411241FBECFEFD8E0DEBFCDBFAB
:1000D00021E0AEE1B1E001C01D92AA3AB207E1F71A
:1000E00011E0A0E0B1E0E2E1FBE002C005900D927A
:1000F000AE31B107D9F710E0C2E6D0E004C02197D5
:10010000FE010E948105C136D107C9F70E94BE04D5
:100110000C9487050C94000090E0FC01E255FF4F21
:10012000249186569F4FFC018491882399F090E09A
:10013000880F991FFC01E057FF4FA591B491FC0176
:10014000EA57FF4F859194918FB7F894EC91E22B89
:10015000EC938FBF0895AF92BF92CF92DF92EF9250
:10016000FF920F931F93CF93DF936C017B018B0161
:10017000040F151FEB015E01AE18BF08C017D107B1
:1001800059F06991D601ED91FC910190F081E02D3B
:10019000C6010995892B79F7C501DF91CF911F9190
:1001A0000F91FF90EF90DF90CF90BF90AF900895A8
:1001B000833081F028F4813099F08230A9F00895DD
:1001C0008730A9F08830C9F08430B1F48091800084
:1001D0008F7D03C0809180008F7780938000089589
:1001E00084B58F7784BD089584B58F7DFBCF8091D2
:1001F000B0008F778093B00008958091B0008F7D1C
:10020000F9CF1F93CF93DF93282F30E0F901EE58F9
:10021000FF4F8491F901E255FF4FD491F901E65661
:10022000FF4FC491CC23A9F0162F81110E94D80052
:10023000EC2FF0E0EE0FFF1FEA57FF4FA591B491AE
:100240008FB7F894EC91111108C0D095DE23DC93A0
:100250008FBFDF91CF911F910895DE2BF8CF3FB76D
:10026000F89480918E0190918F01A0919001B091AE
:10027000910126B5A89B05C02F3F19F00196A11D3D
:10028000B11D3FBFBA2FA92F982F8827BC01CD01E0
:10029000620F711D811D911D42E0660F771F881F3F
:1002A000991F4A95D1F708958F929F92AF92BF926E
:1002B000CF92DF92EF92FF924B015C010E942F01DF
:1002C0006B017C010E942F016C197D098E099F0929
:1002D000683E734081059105A8F321E0821A9108D8
:1002E000A108B10888EEC80E83E0D81EE11CF11CFD
:1002F00081149104A104B10429F7FF90EF90DF90DD
:10030000CF90BF90AF909F908F900895089585ED06
:100310008093BC008091BC0084FDFCCF10926301EF
:10032000089520913F01260F3327331F21323105D5
:10033000ECF420916301FC0190E080E0243069F04E
:1003400082E00895A0913F012191AC01415E5E4F92
:10035000A40FB52FB11D2C930196861798F38091A9
:100360003F01680F60933F0180E0089581E00895A8
:1003700008958FEF9FEF08958FEF9FEF089580917D
:100380001E0190E09195819591090895CF93DF9397
:10039000CB01EA01642F0E949101CE01DF91CF9140
:1003A0000895CF93DF931F92CDB7DEB7698361E0E5
:1003B000CE0101960E94910181E090E00F90DF91C3
:1003C000CF91089590E080E00895CF93DF93EC0102
:1003D00060E08E810E94010161E08E810E94010136
:1003E00060E08E810E9401018BE891E00197F1F7B6
:1003F000DF91CF910895CF92DF92EF92FF920F930A
:100400001F93CF93DF936C017C0187E0E80EF11C12
:10041000D0E0C0E0062F10E0B8010C2E02C07595A8
:1004200067950A94E2F76170F70181917F010E945C
:1004300001012196C430D10579F7C601DF91CF9132
:100440001F910F91FF90EF90DF90CF900C94E501FA
:10045000CF92DF92EF92FF920F931F93CF93DF9390
:10046000EC01F62E642F8C810E9401018D818F3F5B
:1004700019F060E00E9401010F2D10E08F8584FFCC
:1004800025C06E0187E0C80ED11CF12CE12CB8010B
:100490000E2C02C0759567950A94E2F76170F6011B
:1004A00081916F010E940101FFEFEF1AFF0A88E0BE
:1004B000E816F10461F7CE01DF91CF911F910F9102
:1004C000FF90EF90DF90CF900C94E501B80184E0AD
:1004D000759567958A95E1F7CE010E94FB016F2D16
:1004E000CE01DF91CF911F910F91FF90EF90DF90A0
:1004F000CF900C94FB0140E061E082E991E00E9422
:1005000028028BE39FE10197F1F70895CF93DF93E2
:10051000823029F49091A10198609093A101809379
:10052000A5011092A60180E48093A70180E1809349
:10053000A80180E58093A901809196010E948C001A
:10054000809197018F3F11F00E948C00809198015B
:100550000E948C00C2E9D1E09E0122593140809175
:10056000A10184FD0AC084E090E021962817390794
:100570003CF48E810E948C00EFCF88E090E0F5CFB4
:100580008BE39DE00197F1F760E0809196010E9476
:10059000010160E0809198010E9401018091970122
:1005A0008F3F19F060E00E9401016091A10164FD9C
:1005B0003DC063E082E991E00E94FB01CBE4D6E418
:1005C000CE010197F1F763E082E991E00E94FB011F
:1005D0002197F1F763E082E991E00E94FB0183E556
:1005E00092E00197F1F762E082E991E00E94FB015D
:1005F0006091A101606240E082E991E00E942802DE
:1006000084E08093A20140E06CE082E991E00E94E6
:1006100028020E947B0282E08093A30140E066E012
:1006200082E991E0DF91CF910C942802606240E072
:1006300082E991E00E9428028BE496E40197F1F7A9
:100640006091A101606240E082E991E00E9428028D
:1006500083E592E00197F1F76091A101606240E0CB
:1006600082E991E00E942802C3CF41E00E94280263
:1006700081E090E008951F920F920FB60F9211241F
:100680002F933F938F939F93AF93BF9380918A0152
:1006900090918B01A0918C01B0918D0130918901D5
:1006A00023E0230F2D3758F50196A11DB11D20938E
:1006B000890180938A0190938B01A0938C01B09360
:1006C0008D0180918E0190918F01A0919001B09148
:1006D00091010196A11DB11D80938E0190938F0110
:1006E000A0939001B0939101BF91AF919F918F9191
:1006F0003F912F910F900FBE0F901F90189526E8F5
:10070000230F0296A11DB11DD2CF1F920F920FB6DB
:100710000F9211242F933F934F935F936F937F9387
:100720008F939F93AF93BF93EF93FF938091B90003
:10073000887F803609F44AC0F0F5883209F4A5C0F4
:1007400018F5803109F499C0B8F4882309F4F5C08C
:10075000883009F492C0FF91EF91BF91AF919F91C2
:100760008F917F916F915F914F913F912F910F905A
:100770000FBE0F901F901895883109F486C0803203
:1007800051F78093620114C0803409F49BC040F497
:100790008033B9F38833F9F68093620185ECAEC0FB
:1007A000803509F483C0883509F494C0883499F6FB
:1007B0000E948701D0CF883909F48AC038F588377C
:1007C00029F050F4883611F0803729F683E08093C1
:1007D00063011092610155C0883809F479C08039ED
:1007E00019F0803809F0B7CF80916101803208F0AC
:1007F0006FC0E091610181E08E0F80936101809173
:10080000BB00F0E0EF5BFE4F80833BC0803B39F0E4
:10081000D0F4803A09F477C0883A09F09CCF84E09C
:10082000809363011092400110923F01F0E0E0E0FC
:10083000099580913F0181110FC081E080933F01B4
:1008400010921F0109C0803C09F4A8CF883C09F42C
:10085000A5CF883B09F07FCFE091400181E08E0F6A
:1008600080934001F0E0E15EFE4F80818093BB0009
:100870009091400180913F0129C08091880180932F
:10088000BB0085EC8093BC0066CF9091870180917E
:100890008601981758F5E091870181E08E0F8093CB
:1008A0008701F0E0EA59FE4F8081E9CFE0918701AE
:1008B00081E08E0F809387018091BB00F0E0EA59C0
:1008C000FE4F808390918701809186019817C8F22E
:1008D00085E8D8CFE091870181E08E0F8093870172
:1008E0008091BB00F0E0EA59FE4F80838091650162
:1008F00081115ECF81E08093640184EA8093BC0023
:100900001092630128CF85EC8093BC0010926301A4
:1009100080916101803230F4E0916101F0E0EF5BA1
:10092000FE4F10826091610170E081E491E0F0E09F
:10093000E0E00995109261010ECF1092620138CF6C
:10094000E2E9F1E01382128284E091E091838083F6
:100950008CE084838FEF85838BE0868384E08783BC
:1009600083E0808782E0818788E08287138614860F
:1009700015861686178681E00C948602789484B5D5
:10098000826084BD84B5816084BD85B5826085BD8B
:1009900085B5816085BD80916E00816080936E0019
:1009A000109281008091810082608093810080910B
:1009B00081008160809381008091800081608093BC
:1009C00080008091B10084608093B1008091B0007C
:1009D00081608093B00080917A00846080937A0077
:1009E00080917A00826080937A0080917A008160A1
:1009F00080937A0080917A00806880937A001092C8
:100A0000C10082E00E94860289E00E948C0080E0A2
:100A10000E948C0081E00E948C0087E00E948C0084
:100A20008DE00E948C00CCE7D0E008EB10E094EA67
:100A3000E92E90E0F92E20E0C22E20E0D22E0E9476
:100A40007B0268EC70E080E090E00E9454016091CD
:100A5000A201862F84608093A2016C6040E082E94D
:100A600091E00E94280260E08DE00E94010160E0B8
:100A700087E00E94010160E081E00E94010160E0E6
:100A800080E00E94010161E08DE00E94010160E0D0
:100A900087E00E94010160E081E00E94010160E0C6
:100AA00080E00E940101FE018491F801A490F70109
:100AB000B490B11017C041E150E06CE071E082E900
:100AC00091E00E94AB0064EF71E080E090E00E9452
:100AD00054010E947B02C114D10409F4B0CF0E94DA
:100AE0000000ADCF81110E94D800EB2DF0E0EE0F99
:100AF000FF1FE859FF4FA591B4918C91A822D9F21C
:100B0000EACFEE0FFF1F0590F491E02D0994F894C1
:020B1000FFCF15
:100B1200000000003503AB00E201860153656E73ED
:0E0B22006F722048756D656461642031320089
:00000001FF
