:100000000C946D000C9495000C9495000C94950044
:100010000C9495000C9495000C9495000C9495000C
:100020000C9495000C9495000C9495000C949500FC
:100030000C9495000C9495000C9495000C949500EC
:100040000C94C9080C9495000C9497080C947108B2
:100050000C9495000C9495000C9495000C949500CC
:100060000C9413090C949500000000080002010094
:1000700000030407000000000000000030303A35A3
:10008000323A32310044656320323220323032312C
:10009000001F1C1F1E1F1E1F1F1E1F1E0000000012
:1000A000250028002B0000000000240027002A0063
:1000B000040404040404040402020202020203030E
:1000C0000303030301020408102040800102040816
:1000D0001020010204081020320A11241FBECFEFA5
:1000E000D8E0DEBFCDBF23E0AAE2B2E001C01D929E
:1000F000A43BB207E1F712E0A0E0B1E0E2EFF4E2E6
:1001000002C005900D92AA32B107D9F710E0CDE6F2
:10011000D0E004C02197FE010E944711CC36D107E0
:10012000C9F70E94880A0C9477120C94000090E0A2
:10013000FC01EC53FF4F249180559F4FFC018491AB
:10014000882399F090E0880F991FFC01EA55FF4F32
:10015000A591B491FC01E456FF4F859194918FB71E
:10016000F894EC91E22BEC938FBF089508950895D5
:10017000AF92BF92CF92DF92EF92FF920F931F93B5
:10018000CF93DF936C017B018B01040F151FEB01F3
:100190005E01AE18BF08C017D10759F06991D601AA
:1001A000ED91FC910190F081E02DC6010995892B1C
:1001B00079F7C501DF91CF911F910F91FF90EF90DB
:1001C000DF90CF90BF90AF900895FC01538D448D88
:1001D000252F30E0842F90E0821B930B541710F0F2
:1001E000CF96089501970895FC01918D828D9817FF
:1001F00061F0A28DAE0FBF2FB11D5D968C91928DD7
:100200009F5F9F73928F90E008958FEF9FEF089507
:10021000FC01918D828D981731F0828DE80FF11DD0
:10022000858D90E008958FEF9FEF0895FC01918DEB
:10023000228D892F90E0805C9F4F821B91098F73E4
:10024000992708958FEE92E00E94160121E0892BF4
:1002500009F420E0822F089580E090E0892B29F0B6
:100260000E94220181110C9400000895FC01A48DCC
:10027000A80FB92FB11DA35ABF4F2C91848D90E0C8
:1002800001968F739927848FA689B7892C93A089AB
:10029000B1898C91837080648C93938D848D981335
:1002A00006C00288F389E02D80818F7D80830895C8
:1002B000EF92FF920F931F93CF93DF93EC0181E0B6
:1002C000888F9B8D8C8D98131AC0E889F98980815D
:1002D00085FF15C09FB7F894EE89FF896083E88990
:1002E000F98980818370806480839FBF81E090E082
:1002F000DF91CF911F910F91FF90EF900895F62E0F
:100300000B8D10E00F5F1F4F0F731127E02E8C8DA8
:100310008E110CC00FB607FCFACFE889F9898081ED
:1003200085FFF5CFCE010E943601F1CFEB8DEC0FAA
:10033000FD2FF11DE35AFF4FF0829FB7F8940B8F0A
:10034000EA89FB8980818062CFCF682F8FEE92E0AF
:100350000C945801CF93DF93EC01888D8823B9F07A
:10036000AA89BB89E889F9898C9185FD03C08081C0
:1003700086FD0DC00FB607FCF7CF8C9185FFF2CF3D
:10038000808185FFEDCFCE010E943601E9CFDF915C
:10039000CF91089590E0FC01E859FF4F2491FC01B2
:1003A000EC53FF4F3491FC01E055FF4FE491EE23F5
:1003B000C9F0222339F0233001F1A8F4213019F1DA
:1003C000223029F1F0E0EE0FFF1FE456FF4FA59118
:1003D000B4918FB7F894EC91611126C030953E230B
:1003E0003C938FBF08952730A9F02830C9F02430FE
:1003F00049F7809180008F7D03C0809180008F77C6
:1004000080938000DFCF84B58F7784BDDBCF84B548
:100410008F7DFBCF8091B0008F778093B000D2CFDB
:100420008091B0008F7DF9CF3E2BDACF3FB7F894A3
:1004300080916F0290917002A0917102B09172024E
:1004400026B5A89B05C02F3F19F00196A11DB11D2F
:100450003FBFBA2FA92F982F8827BC01CD01620F6B
:10046000711D811D911D42E0660F771F881F991F26
:100470004A95D1F708958F929F92AF92BF92CF92F3
:10048000DF92EF92FF924B015C010E9416026B011A
:100490007C010E9416026C197D098E099F09683E35
:1004A000734081059105A8F321E0821A9108A10803
:1004B000B10888EEC80E83E0D81EE11CF11C81143F
:1004C0009104A104B10429F7FF90EF90DF90CF9041
:1004D000BF90AF909F908F900895089520914B0208
:1004E000260F3327331F21323105ECF42091C5024A
:1004F000FC0190E080E0243069F082E00895A09152
:100500004B022191AC01455D5D4FA40FB52FB11D8C
:100510002C930196861798F380914B02680F609395
:100520004B0280E0089581E008951092C50281E0B9
:100530008093C40210929F0261E082E10E94CA018E
:1005400061E083E10E94CA01E9EBF0E080818E7FE7
:10055000808380818D7F808388E48093B80085E4E8
:100560008093BC000895CF93DF9391E090932A028B
:100570008823B9F0C091B800D091BA008091BC0036
:100580008A7B8093BC0060E082E10E94CA0160E047
:1005900083E10E94CA010E949502D093BA00C093E1
:1005A000B800DF91CF9108958F929F92AF92BF9242
:1005B000CF92DF92EF92FF920F931F93CF93DF932F
:1005C000D091EE02D13208F0D7C0182FC091ED02C1
:1005D0000E9416026B017C018091C50281116BC0E3
:1005E00082E08093C5021093C4028FEF8093C30210
:1005F0001092C202D093C102ADECB2E0E1EAF2E0A7
:1006000080E0D81391C01092A0028091A002CC0F7C
:10061000C82BC093A00280919F02813009F088C04E
:1006200010929F020E9416026B017C018091A00231
:100630008093BB008091C7029091C802A091C9022B
:10064000B091CA02892B8A2B8B2BA1F00E94160233
:100650000091C7021091C8022091C9023091CA02CC
:100660006C197D098E099F09061717072807390796
:1006700008F442C08091BC0083FDD8CF85EC809304
:10068000BC000E9416026B017C018091C502823081
:1006900009F450C08091C3028F3F09F46FC080916C
:1006A000C302803209F46CC08091C302803309F424
:1006B00069C084E026C08091C7029091C802A091D1
:1006C000C902B091CA02892B8A2B8B2B09F484CFE3
:1006D0000E9416028090C7029090C802A090C902A2
:1006E000B090CA026C197D098E099F09861697067B
:1006F000A806B90608F070CF8091C6020E94B30226
:1007000085E01092CC021092EE021092CB02DF91A3
:10071000CF911F910F91FF90EF90DF90CF90BF90FE
:10072000AF909F908F9008959D9191938F5F69CF27
:1007300085EEA5CF8091C7029091C802A091C90211
:10074000B091CA02892B8A2B8B2B09F49ECF0E9471
:1007500016020091C7021091C8022091C90230917F
:10076000CA026C197D098E099F0906171707280709
:10077000390708F08ACFC0CF81E0C3CF80E0C1CF76
:1007800082E0BFCF83E0BDCF0895E0917E028091EB
:100790007D02E81730F4F0E0E158FD4F808190E0F1
:1007A00008958FEF9FEF089590917E0280917D02D2
:1007B0002FEF3FEF981748F4E92FF0E0E158FD4F95
:1007C000208130E09F5F90937E02C901089580915F
:1007D0007D0290917E02891B990B0895CF92DF9242
:1007E000EF92FF920F931F93CF93DF937C01CB0186
:1007F0008A012091CB02222389F0EB016B01C40E08
:10080000D51ECC15DD0569F06991D701ED91FC91FC
:100810000190F081E02DC7010995F3CF642F0E946C
:100820006E02C801DF91CF911F910F91FF90EF9061
:10083000DF90CF900895CF93DF931F92CDB7DEB7AF
:1008400069832091CB022223F9F02091EE0220321D
:1008500058F021E030E0FC013383228390E080E017
:100860000F90DF91CF9108958091CC02E82FF0E0B6
:10087000E353FD4F998190838F5F8093CC028093E7
:10088000EE0281E090E0ECCF61E0CE0101960E94A3
:100890006E02F7CF90E080E00895CF93DF93EC01F4
:1008A0008B818823A1F0888191E09093CB02809383
:1008B000ED021092CC021092EE0281E00E94D4026E
:1008C00091E0811190E0892FDF91CF9108951092EE
:1008D0007E0210927D021092CC021092EE020E94D3
:1008E000950286EB90E0909376028093750287EBF9
:1008F00090E0909374028093730281E08B83CE0129
:100900000E944D04982F8111CECFDDCFFC01908144
:1009100090539A3008F090E0818180532AE0929FB2
:10092000800D11240895DC0150E0E1E9F0E081E060
:10093000861730F49491490F511D8F5F3196F8CF8F
:10094000633038F0CD0183709927892B11F44F5F04
:100950005F4F9D012D5F3F4F369527953695279523
:100960006DE671E0A69FC001A79F900DB69F900D08
:1009700011240197820F931F840F951F0895EF9202
:10098000FF920F931F93CF93DF93EC0188814A81ED
:10099000698190E00E9493049C01A8E1B0E00E946C
:1009A00050102B817B018C01E20EF11C011D111DE9
:1009B000A8019701ACE3B0E00E9445102C817B01B7
:1009C0008C01E20EF11C011D111DA80197010E946E
:1009D0004510AB01BC019D81892F90E0B0E0A0E003
:1009E00080589C4BA249B74C8A019B01080F191FE4
:1009F0002A1F3B1FC901B801DF91CF911F910F91B1
:100A0000FF90EF9008952F923F924F925F926F92D6
:100A10007F928F929F92AF92BF92CF92DF92EF928E
:100A2000FF920F931F93CF93DF935C011B016A0129
:100A3000F12CE12CD50114968D919C9186010E1913
:100A40001F098017910708F48C01F501D0810E94DD
:100A500016022B013C018091C502811172C0C02F8A
:100A6000013208F0C0E2F1E0F093C50221E0C601D6
:100A7000801B910BE816F90608F420E02093C402CD
:100A80008FEF8093C3021092C2028C0F8093C10239
:100A9000A1E0A093A0028091A002DD0FD82BD093FB
:100AA000A00280919F02813009F090C010929F02B5
:100AB0000E9416022B013C018091A0028093BB0092
:100AC0008091C7029091C802A091C902B091CA0258
:100AD000892B8A2B8B2BA1F00E9416022091C70232
:100AE0003091C8024091C9025091CA026419750937
:100AF00086099709261737074807590708F442C09F
:100B00008091BC0083FDD8CFB5ECB093BC000E94AF
:100B100016022B013C018091C502813009F45AC0B4
:100B20008091C2028C1710F4C091C202A1EAB2E017
:100B3000EFE7F2E080E08C1751F19D9191938F5F88
:100B4000FACF8091C7029091C802A091C902B091DA
:100B5000CA02892B8A2B8B2B09F47DCF0E941602A7
:100B60002091C7023091C8024091C9025091CA0237
:100B70006419750986099709261737074807590721
:100B800008F069CF8091C6020E94B302C0E01092C3
:100B90007E02C0937D02C017110609F057C04101C3
:100BA0008E0C9F1CE401CE018819990980179107CA
:100BB00098F5D50111968D919C91DC01ED91FC91F8
:100BC0000284F385E02D09958993EDCFE5EEE0935E
:100BD000BC009DCF8091C7029091C802A091C9022C
:100BE000B091CA02892B8A2B8B2B09F494CF0E94D7
:100BF00016022091C7023091C8024091C90250915B
:100C0000CA02641975098609970926173707480724
:100C1000590708F080CFB6CFE00EF11EEC14FD04AA
:100C200008F408CF81E0DF91CF911F910F91FF90E1
:100C3000EF90DF90CF90BF90AF909F908F907F907C
:100C40006F905F904F903F902F90089580E0EBCF92
:100C50001F93CF93DF93DC011496ED91FC91E41781
:100C6000F50710F490E01FC0122FEA01FC0181810A
:100C70009281208131E03093CB022093ED021092DB
:100C8000CC021092EE02DC01ED91FC910280F38126
:100C9000E02D0995C817D90729F7812F0E94D402A2
:100CA00091E08111DFCF892FDF91CF911F910895BE
:100CB000CF93DF9300D0CDB7DEB78FE08A8321E0FA
:100CC00041E050E0BE016E5F7F4F80917B029091CA
:100CD0007C020E94280641E050E0BE016F5F7F4F1A
:100CE00080917B0290917C020E94030589810F9084
:100CF0000F90DF91CF910895CF93DF93EC0160E0E7
:100D00008E810E94CA0161E08E810E94CA0160E06A
:100D10008E810E94CA018BE891E00197F1F7DF9183
:100D2000CF910895CF92DF92EF92FF920F931F938E
:100D3000CF93DF936C017C0187E0E80EF11CD0E0DB
:100D4000C0E0062F10E0B8010C2E02C07595679523
:100D50000A94E2F76170F70181917F010E94CA0154
:100D60002196C430D10579F7C601DF91CF911F914B
:100D70000F91FF90EF90DF90CF900C947C06CF9274
:100D8000DF92EF92FF920F931F93CF93DF93EC01CB
:100D9000F62E642F8C810E94CA018D818F3F19F03D
:100DA00060E00E94CA010F2D10E08F8584FF25C0EE
:100DB0006E0187E0C80ED11CF12CE12CB8010E2C7D
:100DC00002C0759567950A94E2F76170F60181910A
:100DD0006F010E94CA01FFEFEF1AFF0A88E0E816D0
:100DE000F10461F7CE01DF91CF911F910F91FF9038
:100DF000EF90DF90CF900C947C06B80184E075955D
:100E000067958A95E1F7CE010E9492066F2DCE017B
:100E1000DF91CF911F910F91FF90EF90DF90CF90D6
:100E20000C94920640E0682F88E993E00C94BF068A
:100E3000CF93DF93823029F49091A7039860909329
:100E4000A7038093AB031092AC0380E48093AD03BF
:100E500080E18093AE0380E58093AF0380919C0393
:100E60000E94970080919D038F3F11F00E94970090
:100E700080919E030E949700C8E9D3E09E01285903
:100E800033408091A70384FD0AC084E090E021965E
:100E9000281739073CF48E810E949700EFCF88E035
:100EA00090E0F5CF8BE39DE00197F1F760E0809152
:100EB0009C030E94CA0160E080919E030E94CA01C7
:100EC00080919D038F3F19F060E00E94CA018091DC
:100ED000A70384FD39C063E088E993E00E9492068D
:100EE000CBE4D6E4CE010197F1F763E088E993E023
:100EF0000E9492062197F1F763E088E993E00E944F
:100F0000920683E592E00197F1F762E088E993E0C9
:100F10000E9492068091A70380620E94120784E0DB
:100F20008093A8038CE00E94120781E00E941207C0
:100F30008BE39FE10197F1F782E08093A90386E0BC
:100F4000DF91CF910C94120780620E9412078BE40C
:100F500096E40197F1F78091A70380620E9412073F
:100F600083E592E00197F1F78091A70380620E94E8
:100F70001207D0CF41E00E94BF0681E090E00895C3
:100F8000FB0101900020E9F73197AF01461B570B99
:100F9000DC01ED91FC910280F381E02D09948F92A8
:100FA0009F92AF92BF92EF92FF920F931F93CF93B6
:100FB000DF93CDB7DEB7A1970FB6F894DEBF0FBEB3
:100FC000CDBF7C01FA01CB0119A2223008F42AE03E
:100FD0008E010F5D1F4F822E912CB12CA12CBF01D1
:100FE000A50194010E942511F901CA016A300CF58E
:100FF000605DD8016E938D01232B242B252B79F76F
:1010000090E080E0109721F0BD01C7010E94C00769
:10101000A1960FB6F894DEBF0FBECDBFDF91CF9182
:101020001F910F91FF90EF90BF90AF909F908F9086
:101030000895695CDECF482F50E070E060E02AE060
:101040008FEE92E00C94CF07CF93DF93BC018FEE2D
:1010500092E00E94C007EC016AE871E08FEE92E036
:101060000E94C0078C0F9D1FDF91CF9108950C94B3
:10107000C00785ED8093BC008091C7029091C802A3
:10108000A091C902B091CA020796A11DB11D23E02B
:10109000B695A795979587952A95D1F72091BC008D
:1010A00024FD03C01092C50208954091C7025091DB
:1010B000C8026091C9027091CA02452B462B472B8A
:1010C00069F30097A105B10541F025E32A95F1F7F1
:1010D00000000197A109B109E1CF8091C6020C94EB
:1010E000B3021F920F920FB60F9211242F933F93CA
:1010F0004F935F936F937F938F939F93AF93BF9320
:10110000EF93FF938FEE92E00E943601FF91EF91F3
:10111000BF91AF919F918F917F916F915F914F910F
:101120003F912F910F900FBE0F901F9018951F9217
:101130000F920FB60F9211242F938F939F93EF93DB
:10114000FF93E091FF02F09100038081E09105039D
:10115000F091060382FD1BC09081809108038F5F90
:101160008F7320910903821741F0E0910803F0E0AA
:10117000E151FD4F958F80930803FF91EF919F916F
:101180008F912F910F900FBE0F901F901895808117
:10119000F4CF1F920F920FB60F9211242F933F930B
:1011A0008F939F93AF93BF93809177029091780232
:1011B000A0917902B0917A0230916E0223E0230F60
:1011C0002D3758F50196A11DB11D20936E02809315
:1011D000770290937802A0937902B0937A0280917B
:1011E0006F0290917002A0917102B091720201960B
:1011F000A11DB11D80936F0290937002A0937102A4
:10120000B0937202BF91AF919F918F913F912F91B7
:101210000F900FBE0F901F90189526E8230F02968F
:10122000A11DB11DD2CF1F920F920FB60F921124A4
:101230002F933F934F935F936F937F938F939F93DE
:10124000AF93BF93EF93FF938091B900887F80366F
:1012500009F44AC0F0F5883209F4A7C018F58031C6
:1012600009F49BC0B8F4882309F4F9C0883009F464
:1012700094C0FF91EF91BF91AF919F918F917F911A
:101280006F915F914F913F912F910F900FBE0F90F3
:101290001F901895883109F488C0803251F78093E7
:1012A000C30214C0803409F49DC040F48033B9F304
:1012B0008833F9F68093C30285ECB0C0803509F419
:1012C00085C0883509F496C0883499F60E9439089B
:1012D000D0CF883909F48CC038F5883729F050F41C
:1012E000883611F0803729F683E08093C50210928A
:1012F0006D0257C0883809F47BC0803919F08038F6
:1013000009F0B7CF80916D02803208F071C0E09192
:101310006D0281E08E0F80936D028091BB00F0E042
:10132000E35BFD4F80833DC0803B39F0E0F4803AC1
:1013300009F479C0883A09F09CCF84E08093C50213
:1013400010924C0210924B02E0917502F0917602DD
:10135000099580914B0281110FC081E080934B026F
:1013600010922B0209C0803C09F4A6CF883C09F4F6
:10137000A3CF883B09F07DCFE0914C0281E08E0F36
:1013800080934C02F0E0E55DFD4F80818093BB00CF
:1013900090914C0280914B0229C08091A0028093D1
:1013A000BB0085EC8093BC0064CF9091C202809119
:1013B000C102981758F5E091C20281E08E0F809328
:1013C000C202F0E0EF55FD4F8081E9CFE091C2020B
:1013D00081E08E0F8093C2028091BB00F0E0EF5558
:1013E000FD4F80839091C2028091C1029817C8F28C
:1013F00085E8D8CFE091C20281E08E0F8093C202CF
:101400008091BB00F0E0EF55FD4F80838091C402D6
:1014100081115CCF81E080939F0284EA8093BC00BD
:101420001092C50226CF85EC8093BC001092C502B5
:1014300080916D02803230F4E0916D02F0E0E35B68
:10144000FD4F108260916D0270E0E0917302F091A7
:1014500074028DE492E0099510926D020ACF109209
:10146000C30234CFEFEEF2E01382128288EE93E0F3
:10147000A0E0B0E084839583A683B7832EE531E0B6
:101480003183208325EC30E03587248724EC30E05D
:101490003787268720EC30E0318B208B21EC30E041
:1014A000338B228B22EC30E0358B248B26EC30E022
:1014B000378B268B118E128E138E148EECE8F3E090
:1014C0001382128284839583A683B78380E791E099
:1014D00091838083E8E9F3E01382128282E891E04D
:1014E000918380838CE084838FEF85838BE0868378
:1014F00084E0878383E0808782E0818788E0828739
:101500001386148615861686178681E00C941807B4
:10151000CF93DF93CDB7DEB761970FB6F894DEBFF8
:101520000FBECDBF789484B5826084BD84B58160E0
:1015300084BD85B5826085BD85B5816085BD80919E
:101540006E00816080936E00109281008091810016
:10155000826080938100809181008160809381000E
:10156000809180008160809380008091B1008460D0
:101570008093B1008091B00081608093B000809131
:101580007A00846080937A0080917A0082608093F0
:101590007A0080917A00816080937A0080917A004D
:1015A000806880937A001092C10082E00E94180740
:1015B0008DE00E949700E091FF02F091000382E02D
:1015C0008083E091FF02F09100031082E091FB0222
:1015D000F091FC021082E091FD02F091FE0280E1A8
:1015E000808310920703E0910303F091040386E0E7
:1015F0008083E0910103F091020380818061808308
:10160000E0910103F0910203808188608083E09182
:101610000103F0910203808180688083E0910103DF
:10162000F091020380818F7D808380917B02909175
:101630007C02009711F00E94E91186E090E00E9480
:101640004D118C0188E6F80180838CE893E0928349
:101650008183138280E290E09583848310937C02DF
:1016600000937B0210927E0210927D021092CC02B7
:101670001092EE020E94950286EB90E09093760223
:101680008093750287EB90E09093740280937302CD
:1016900081E0F8018383C8010E944D0481110AC0D2
:1016A0008DE891E00E9424088FEE92E00E94AA014A
:1016B0000E9472120E94580690E0880F892F881F9E
:1016C000990B8E010F5F1F4F892B09F4BEC08FE964
:1016D00091E00E9424084BE050E065E870E0C8010A
:1016E0000E94180FCE010A960E948604E82EE98116
:1016F000E154E33130F50E2E000CFF0BEE57F44FA2
:101700000C944711B80DA10BA10BD30DA10BD60D55
:10171000A10BA10BA10B950BA10BA10BC10DD00D22
:10172000CD0DA10BA10BA10BCA0D8A81FF24F3944F
:10173000813639F08B8126E0F22E8E3611F097E05B
:10174000F92ECE0105960E948604D82E48E050E07E
:101750006CE770E0C8010E94180FC8010E9486045F
:10176000C82ECE0104960E948604B82ECE0107969C
:101770000E948604382F88E0F80111928A95E9F7D3
:101780002AE0832F622F0E940511982F880F890F5E
:10179000880F830F8A838B2D0E940511982F880F45
:1017A000890F880F8B0D8B838C2D0E940511982F2C
:1017B000880F890F880F8C0D8C834D2D6F2D8E2DEA
:1017C00090E00E949304069667E070E00E94111179
:1017D000811101C087E08D832AE08D2D622F0E9448
:1017E0000511982F880F890F880F8D0D8E838F2DEF
:1017F0000E940511982F990F890F880FF80EFF820C
:101800008E2D0E940511982F880F890F880F8E0D3D
:10181000888721E048E050E0B80180917B029091F8
:101820007C020E9428060E9458069FE09C878F77C2
:101830008D8721E042E050E0BE01645F7F4F8091E0
:101840007B0290917C020E94280663EC71E088E99B
:1018500093E00E94370830E0232E30E0332E60E022
:101860008DE00E94CA0168EE73E080E090E00E9483
:101870003B0261E08DE00E94CA0168EE73E080E007
:1018800090E00E943B02E091AB03E23008F091C18E
:10189000E150F0E0E856FC4F848980680E9412070E
:1018A0002FB7F89460917702709178028091790255
:1018B00090917A022FBF28EE33E040E050E00E9482
:1018C0002511BA01A9012AE088E993E00E94CF0717
:1018D0001982E0907B02F0907C0220E041E050E031
:1018E000B801C7010E942806882331F047E050E084
:1018F000B801C7010E94030559815F776A817B8126
:10190000ED812E812F773F81832F90E044E09595E4
:1019100087954A95E1F7982F990F990F482F491B02
:10192000440F430F4C87822F90E0F4E09595879504
:10193000FA95E1F7982F990F990F891B880F820F5D
:101940008D872E2F30E0A4E035952795AA95E1F7F5
:10195000822F880F880F281B220F2E0F2E87872F8C
:1019600090E0B4E095958795BA95E1F7982F990F97
:10197000990F891B880F870F8F87262F30E084E00F
:10198000359527958A95E1F7822F880F880F281BB8
:10199000220F260F288B852F90E024E095958795C0
:1019A0002A95E1F7982F990F990F891B880F850FBA
:1019B000898B50E04053584F70E060E02AE08FEE92
:1019C00092E00E94CF078FE20E94A5018D850E94C0
:1019D0001B088FE20E94A5018E850E941B0862ED04
:1019E00071E08FEE92E00E9437088C854E856D8500
:1019F00090E00E949304069667E070E00E94111147
:101A0000FCE0F89FB001F99F700D112460507F4FEA
:101A10008FEE92E00E94370865ED71E08FEE92E064
:101A20000E9437088F850E941B088AE30E94A50147
:101A300088890E941B088AE30E94A50189890E9467
:101A40001B086AE871E08FEE92E00E94C00768ED23
:101A500071E08FEE92E00E943708CE010C960E9452
:101A6000BF04AB01BC012AE08FEE92E00E94CF07D9
:101A700064EF71E08FEE92E00E943708CE010C9681
:101A80000E94BF0420E831E541E050E00E942511AA
:101A9000BA01A9012AE08FEE92E00E94CF0789EFF8
:101AA00091E00E942408CE010C960E94BF046B01B5
:101AB0007C0122E3C21A29E5D20A23E6E20A28E3DE
:101AC000F20AC701B6012CE330E040E050E00E948A
:101AD0002511B62ECA01B9012CE330E040E050E0F8
:101AE0000E942511A62EC701B60120E13EE040E08C
:101AF00050E00E942511CA01B90128E130E040E020
:101B000050E00E942511962EC701B60120E831E56C
:101B100041E050E00E9425116901F12C2F2D237026
:101B200081E090E011F090E080E031E03F0DAC0109
:101B300043595E4FC416D50608F03DC0E1E9F0E018
:101B4000EE24E3945CE0E51609F43DC08491211194
:101B500004C092E0E91201C08F5F90E031E03E0DD9
:101B60003196C816D90678F1C81AD90AE32EEACFF9
:101B70008B81B8E0FB2E823709F0E3CD84E0F82EAC
:101B8000E0CD8B81A3E0FA2E823709F4DACDF5E0BF
:101B9000FF2ED7CDE9E0FE2ED4CD7AE0F72ED1CDC1
:101BA0006BE0F62ECECD5CE0F52ECBCD42E0F42EF0
:101BB000C8CDE1E06ECE43E95EEF481B590BC40E81
:101BC000D51EF32EABCF6BEF71E08FEE92E00E944B
:101BD00037084F2D50E04053584F70E060E02AE046
:101BE0008FEE92E00E94CF078FE20E94A5018E2D1A
:101BF0000E941B088FE20E94A50181E08C0D0E94CB
:101C00001B0880E20E94A501892D0E941B088AE31F
:101C10000E94A5018A2D0E941B088AE30E94A5014B
:101C20008B2D0E941B086AE871E08FEE92E00E9403
:101C3000C0076DE072E08FEE92E00E943708E1E1AC
:101C4000E9831A82E0907B02F0907C0220E041E080
:101C500050E0B801C7010E942806882331F042E015
:101C600050E0B801C7010E9403056A8170E086E078
:101C7000759567958A95E1F7072E000C880B990BEF
:101C80000E94280F20E030E040E85EE30E94870FCA
:101C90006B017C01698170E090E080E00E94260F7A
:101CA0009B01AC01C701B6010E9460106B017C0171
:101CB0004B015C01AC019B010E9400116BE172E0E1
:101CC00081111AC026013701E89477F82FEF3FEF12
:101CD0004FE75FE7C301B2010E94001181112CC0E0
:101CE0002FEF3FEF4FE75FE7C301B2010E94210FE3
:101CF000181614F56FE172E08FEE92E00E94C007B3
:101D000087E292E00E9424086AE871E08FEE92E098
:101D10000E94C00768EB7BE080E090E00E943B02FD
:101D20002114310409F49BCD0E942201882309F477
:101D300096CD0E94000093CD2FEF3FEF4FE75FE479
:101D4000C701B6010E94FB1018161CF463E272E092
:101D5000D3CF2FEF3FEF4FE75FECC701B6010E94F3
:101D6000210F87FDF3CF20E030E0A901C701B601C4
:101D70000E94210F87FF09C08DE20E94A501460144
:101D80005701B7FAB094B7F8B0942AE037ED43EAB8
:101D90005BE3C501B4010E9460104B015C010E942D
:101DA000CC106B017C010E94260F9B01AC01C50188
:101DB000B4010E945F104B015C012AE0B701A6014B
:101DC0008FEE92E00E94CF078EE20E94A50120E0F4
:101DD00030E040E251E4C501B4010E94870F4B019D
:101DE0005C010E94CC106B01F12CE12C2AE0B701C0
:101DF000A6018FEE92E00E94CF07C701B6010E94B4
:101E0000260F9B01AC01C501B4010E945F1020E0C8
:101E100030E040E251E40E94870F0E94CC10AB01F9
:101E200070E060E02AE08FEE92E00E94CF0768CF7A
:101E3000FB01DC0102C005900D9241505040D8F7E3
:101E400008950E94630F08F481E00895E89409C0A2
:101E500097FB3EF490958095709561957F4F8F4FDD
:101E60009F4F9923A9F0F92F96E9BB279395F695F3
:101E7000879577956795B795F111F8CFFAF4BB0F71
:101E800011F460FF1BC06F5F7F4F8F4F9F4F16C0D5
:101E9000882311F096E911C0772321F09EE8872F5F
:101EA000762F05C0662371F096E8862F70E060E01B
:101EB0002AF09A95660F771F881FDAF7880F969594
:101EC000879597F90895990F0008550FAA0BE0E838
:101ED000FEEF16161706E807F907C0F012161306EC
:101EE000E407F50798F0621B730B840B950B39F42C
:101EF0000A2661F0232B242B252B21F408950A2692
:101F000009F4A140A6958FEF811D811D08950E94BF
:101F10009A0F0C940B100E94FD0F38F00E940410D1
:101F200020F0952311F00C94F40F0C94FA0F112467
:101F30000C943F100E941C1070F3959FC1F3950FF5
:101F400050E0551F629FF001729FBB27F00DB11D3D
:101F5000639FAA27F00DB11DAA1F649F6627B00DCD
:101F6000A11D661F829F2227B00DA11D621F739FB6
:101F7000B00DA11D621F839FA00D611D221F749FC4
:101F80003327A00D611D231F849F600D211D822F0B
:101F9000762F6A2F11249F5750409AF0F1F0882332
:101FA0004AF0EE0FFF1FBB1F661F771F881F91505F
:101FB0005040A9F79E3F510580F00C94F40F0C940B
:101FC0003F105F3FE4F3983ED4F38695779567958D
:101FD000B795F795E7959F5FC1F7FE2B880F911D89
:101FE0009695879597F9089597F99F6780E870E02F
:101FF00060E008959FEF80EC089500240A9416167F
:10200000170618060906089500240A9412161306E6
:10201000140605060895092E0394000C11F4882374
:1020200052F0BB0F40F4BF2B11F460FF04C06F5F90
:102030007F4F8F4F9F4F089557FD9058440F551F66
:1020400059F05F3F71F04795880F97FB991F61F03A
:102050009F3F79F087950895121613061406551FB1
:10206000F2CF4695F1DF08C0161617061806991F1D
:10207000F1CF86957105610508940895E894BB2712
:1020800066277727CB0197F908950E945010A59FE6
:10209000900DB49F900DA49F800D911D1124089563
:1020A000A29FB001B39FC001A39F700D811D112499
:1020B000911DB29F700D811D1124911D08955058DE
:1020C000BB27AA270E9477100C940B100E94FD0FCB
:1020D00038F00E94041020F039F49F3F19F426F4E0
:1020E0000C94FA0F0EF4E095E7FB0C94F40FE92F33
:1020F0000E941C1058F3BA176207730784079507EC
:1021000020F079F4A6F50C943E100EF4E0950B2E19
:10211000BA2FA02D0B01B90190010C01CA01A00139
:102120001124FF27591B99F0593F50F4503E68F194
:102130001A16F040A22F232F342F4427585FF3CFD5
:10214000469537952795A795F0405395C9F77EF4A6
:102150001F16BA0B620B730B840BBAF09150A1F0EF
:10216000FF0FBB1F661F771F881FC2F70EC0BA0F75
:10217000621F731F841F48F4879577956795B795FD
:10218000F7959E3F08F0B0CF9395880F08F09927F8
:10219000EE0F9795879508950E94241088F09F5719
:1021A00098F0B92F9927B751B0F0E1F0660F771F7B
:1021B000881F991F1AF0BA95C9F714C0B13091F071
:1021C0000E943E10B1E008950C943E10672F782FC6
:1021D0008827B85F39F0B93FCCF386957795679536
:1021E000B395D9F73EF490958095709561957F4FA2
:1021F0008F4F9F4F08950E94630F08F48FEF08954B
:102200000E94630F880B990B0895991B79E004C015
:10221000991F961708F0961B881F7A95C9F7809525
:102220000895AA1BBB1B51E107C0AA1FBB1FA6171D
:10223000B70710F0A61BB70B881F991F5A95A9F76F
:1022400080959095BC01CD010895A1E21A2EAA1B9C
:10225000BB1BFD010DC0AA1FBB1FEE1FFF1FA21756
:10226000B307E407F50720F0A21BB30BE40BF50B53
:10227000661F771F881F991F1A9469F760957095DC
:10228000809590959B01AC01BD01CF010895EE0FA3
:10229000FF1F0590F491E02D09940F931F93CF93A6
:1022A000DF938230910510F482E090E0E091B20378
:1022B000F091B30330E020E0B0E0A0E0309799F473
:1022C0002115310509F44AC0281B390B243031058A
:1022D000D8F58A819B816115710589F1FB01938392
:1022E0008283FE0111C04081518102811381481710
:1022F0005907E0F04817590799F4109761F01296C2
:102300000C93129713961C933296CF01DF91CF91C5
:102310001F910F9108950093B2031093B303F4CF6C
:102320002115310551F04217530738F0A901DB019F
:102330009A01BD01DF01F801C1CFEF01F9CF909300
:10234000B3038093B203CDCFFE01E20FF31F81935D
:1023500091932250310939832883D7CF2091B0033C
:102360003091B103232B41F4209156013091570154
:102370003093B1032093B003209154013091550163
:102380002115310541F42DB73EB7409158015091C8
:102390005901241B350BE091B003F091B103E21712
:1023A000F307A0F42E1B3F0B2817390778F0AC0178
:1023B0004E5F5F4F2417350748F04E0F5F1F509355
:1023C000B1034093B003819391939FCFF0E0E0E09D
:1023D0009CCFCF93DF930097E9F0FC0132971382F3
:1023E0001282A091B203B091B303ED0130E020E07E
:1023F0001097A1F420813181820F931F2091B003A7
:102400003091B1032817390709F061C0F093B10387
:10241000E093B003DF91CF910895EA01CE17DF0773
:10242000E8F54A815B819E0141155105B1F7E9014B
:10243000FB83EA8349915991C40FD51FEC17FD071F
:1024400061F4808191810296840F951FE90199833F
:102450008883828193819B838A83F0E0E0E01296F7
:102460008D919C9113970097B9F52D913C911197FF
:10247000CD010296820F931F2091B0033091B103DA
:102480002817390739F6309751F51092B303109297
:10249000B203B093B103A093B003BCCFD383C28384
:1024A00040815181840F951FC817D90761F44E5F91
:1024B0005F4F88819981480F591F518340838A81DA
:1024C0009B81938382832115310509F0B0CFF0936E
:1024D000B303E093B2039ECFFD01DC01C0CF1382B2
:1024E0001282D7CF81E090E0F8940C947712F894A0
:0224F000FFCF1C
:1024F20053756E6461790000000000004D6F6E64D8
:102502006179000000000000547565736461790010
:10251200000000005765646E657364617900000015
:1025220054687572736461790000000046726964D0
:102532006179000000000000536174757264617972
:10254200000000000000B4038000000000005801F9
:10255200B800E500AA011601F4000801000000001D
:102562001B04EE034A04C403E703D403C5030000BB
:102572000000BA07B8004A046D020D0A00436F75E5
:102582006C646E27742066696E6420525443005254
:102592005443206C6F737420706F7765722C206CBB
:1025A2006574277320736574207468652074696D7F
:1025B20065210068656C6C6F2C204361726C6F73CF
:1025C20021002028002920002073696E6365206D98
:1025D20069646E6967687420312F312F3139373061
:1025E200203D200073203D20006400206E6F772084
:1025F2002B203764202B203330733A200054656D32
:1026020070657261747572653A20006E616E006960
:0A2612006E66006F7666002043003C
:00000001FF
