:100000000C946D000C9495000C9495000C94950044
:100010000C9495000C9495000C9495000C9495000C
:100020000C9495000C9495000C9495000C949500FC
:100030000C9495000C9495000C9495000C949500EC
:100040000C941A050C9495000C94E8040C94C204CA
:100050000C9495000C9495000C9495000C949500CC
:100060000C9464050C949500000000080002010047
:100070000003040700000000000000000000000072
:10008000250028002B0000000000240027002A0083
:10009000040404040404040402020202020203032E
:1000A0000303030301020408102040800102040836
:1000B000102001020408102031363A32303A33362B
:1000C000004A756E2032362032303231001F1C1F3C
:1000D0001E1F1E1F1F1E1F1E830611241FBECFEFD3
:1000E000D8E0DEBFCDBF23E0AAE0B2E001C01D92A0
:1000F000A037B207E1F712E0A0E0B1E0E8E0FBE1F1
:1001000002C005900D92AA30B107D9F710E0CDE6F4
:10011000D0E004C02197FE010E94770DCC36D107B4
:10012000C9F70E94BC060C94820D0C9400009091BB
:10013000C6028091C5022FEF3FEF981748F4E92FD0
:10014000F0E0EB55FD4F208130E09F5F9093C602B9
:10015000C90108959091C6028091C5022FEF3FEF2B
:10016000981748F4E92FF0E0EB55FD4F208130E07F
:100170009F5F9093C602C90108959091A4029111C6
:10018000FCCF91E09093A4029093A3022FEF2093D1
:10019000A2021092A102260F2093A00290939F0228
:1001A00090919F02880F892B80939F0280919E02DD
:1001B0008130F9F410929E0280919F028093BB00DF
:1001C0008091BC0083FDF8CF85EC8093BC008091CA
:1001D000A4028130E1F38091A102861710F46091AE
:1001E000A102AEE7B2E0E5EAF2E080E0861303C0E8
:1001F000089585EEEACF9D9191938F5FF7CF20917F
:100200007D0281E0213208F044C08091A402811176
:10021000FCCF80917C0292E09093A40291E09093B5
:10022000A3029FEF9093A2021092A1022093A0023A
:10023000ACE5B2E0EEE7F2E090E0291331C01092B5
:100240009F0290919F02880F892B80939F0280913B
:100250009E02813049F510929E0280919F02809308
:10026000BB008091BC0083FDF8CF85EC8093BC007F
:100270008091A4028230E1F38091A2028F3FB1F01D
:100280008091A2028032A1F08091A202803391F08D
:1002900084E010925B0210927D0210925A0208953F
:1002A0003D9131939F5FC9CF85EEE0CF80E0F1CFE4
:1002B00082E0EFCF83E0EDCF08950895AF92BF9233
:1002C000CF92DF92EF92FF920F931F93CF93DF9322
:1002D0006C017B018B01040F151FEB015E01AE1851
:1002E000BF08C017D10759F06991D601ED91FC9173
:1002F0000190F081E02DC6010995892B79F7C501A0
:10030000DF91CF911F910F91FF90EF90DF90CF90F1
:10031000BF90AF900895FC01538D448D252F30E0A0
:10032000842F90E0821B930B541710F0CF96089502
:1003300001970895FC01918D828D981761F0A28D2F
:10034000AE0FBF2FB11D5D968C91928D9F5F9F73F5
:10035000928F90E008958FEF9FEF0895FC01918DAB
:10036000828D981731F0828DE80FF11D858D90E018
:1003700008958FEF9FEF0895FC01918D228D892FB5
:1003800090E0805C9F4F821B91098F73992708959D
:1003900087EC92E00E94BC0121E0892B09F420E067
:1003A000822F089580E090E0892B29F00E94C801F7
:1003B00081110C9400000895FC01A48DA80FB92FA1
:1003C000B11DA35ABF4F2C91848D90E001968F737D
:1003D0009927848FA689B7892C93A089B1898C919C
:1003E000837080648C93938D848D981306C00288EB
:1003F000F389E02D80818F7D80830895EF92FF92B5
:100400000F931F93CF93DF93EC0181E0888F9B8D37
:100410008C8D98131AC0E889F989808185FF15C0F1
:100420009FB7F894EE89FF896083E889F989808114
:100430008370806480839FBF81E090E0DF91CF91E3
:100440001F910F91FF90EF900895F62E0B8D10E005
:100450000F5F1F4F0F731127E02E8C8D8E110CC074
:100460000FB607FCFACFE889F989808185FFF5CFBF
:10047000CE010E94DC01F1CFEB8DEC0FFD2FF11DC1
:10048000E35AFF4FF0829FB7F8940B8FEA89FB89FC
:1004900080818062CFCF682F87EC92E00C94FE01C0
:1004A000CF93DF93EC01888D8823B9F0AA89BB89AB
:1004B000E889F9898C9185FD03C0808186FD0DC096
:1004C0000FB607FCF7CF8C9185FFF2CF808185FFB7
:1004D000EDCFCE010E94DC01E9CFDF91CF910895ED
:1004E00090E0FC01E859FF4F2491FC01EC55FF4FCF
:1004F0003491FC01E057FF4FE491EE23C9F0222331
:1005000039F0233001F1A8F4213019F1223029F11A
:10051000F0E0EE0FFF1FE458FF4FA591B4918FB7A5
:10052000F894EC91611126C030953E233C938FBF27
:1005300008952730A9F02830C9F0243049F7809178
:1005400080008F7D03C0809180008F778093800032
:10055000DFCF84B58F7784BDDBCF84B58F7DFBCFB4
:100560008091B0008F778093B000D2CF8091B0009F
:100570008F7DF9CF3E2BDACF3FB7F89480915202AE
:1005800090915302A0915402B091550226B5A89BB8
:1005900005C02F3F19F00196A11DB11D3FBFBA2F15
:1005A000A92F982F8827BC01CD01620F711D811DD5
:1005B000911D42E0660F771F881F991F4A95D1F75A
:1005C00008958F929F92AF92BF92CF92DF92EF9257
:1005D000FF924B015C010E94BC026B017C010E94F6
:1005E000BC026C197D098E099F09683E7340810524
:1005F0009105A8F321E0821A9108A108B10888EEBC
:10060000C80E83E0D81EE11CF11C81149104A104E2
:10061000B10429F7FF90EF90DF90CF90BF90AF909B
:100620009F908F90089585ED8093BC008091BC00D1
:1006300084FDFCCF1092A402089520912A02260F77
:100640003327331F21323105ECF42091A402FC0141
:1006500090E080E0243069F082E00895A0912A02C1
:100660002191AC01465F5D4FA40FB52FB11D2C93B6
:100670000196861798F380912A02680F60932A02E8
:1006800080E0089581E008950895E091C602809188
:10069000C502E81730F4F0E0EB55FD4F808190E0A3
:1006A00008958FEF9FEF08958091C5029091C60243
:1006B000891B990B0895CF92DF92EF92FF920F93CF
:1006C0001F93CF93DF937C01CB018A0120915A02C3
:1006D000222389F0EB016B01C40ED51ECC15DD057C
:1006E00069F06991D701ED91FC910190F081E02DC5
:1006F000C7010995F3CF642F0E941D03C801DF9144
:10070000CF911F910F91FF90EF90DF90CF900895C0
:10071000CF93DF931F92CDB7DEB7698320915A0242
:100720002223F9F020917D02203258F021E030E0C0
:10073000FC013383228390E080E00F90DF91CF9122
:10074000089580915B02E82FF0E0E45AFD4F998113
:1007500090838F5F80935B0280937D0281E090E0C5
:10076000ECCF61E0CE0101960E941D03F7CF90E02F
:1007700080E00895FC01908190539A3008F090E059
:10078000818180532AE0929F800D11240895DC011D
:1007900050E0EDECF0E081E0861730F49491490FE1
:1007A000511D8F5F3196F8CF633038F0CD018370E3
:1007B0009927892B11F44F5F5F4F9D012D5F3F4FAC
:1007C00036952795369527956DE671E0A69FC00171
:1007D000A79F900DB69F900D11240197820F931F34
:1007E000840F951F0895EF92FF920F931F93CF935D
:1007F000DF93EC0188814A81698190E00E94C70300
:100800009C01A8E1B0E00E94800C2B817B018C014F
:10081000E20EF11C011D111DA8019701ACE3B0E02F
:100820000E94750C2C817B018C01E20EF11C011DD4
:10083000111DA80197010E94750CAB01BC019D819F
:10084000892F90E0B0E0A0E080589C4BA249B74CC3
:100850008A019B01080F191F2A1F3B1FC901B801FC
:10086000DF91CF911F910F91FF90EF900895FC01C0
:1008700001900020E9F73197AF01481B590BBC01EB
:1008800087EC92E00C945E018F929F92AF92BF92A0
:100890000F931F93CF93DF93CDB7DEB7A1970FB61A
:1008A000F894DEBF0FBECDBF19A2423008F44AE073
:1008B0008E010F5D1F4F842E912CB12CA12CA50110
:1008C00094010E94550DE62FB901CA01EA30F4F4F3
:1008D000E05DD801EE938D01232B242B252B79F796
:1008E00090E080E0109719F0CD010E943704A196A6
:1008F0000FB6F894DEBF0FBECDBFDF91CF911F9131
:100900000F91BF90AF909F908F900895E95CE1CFD9
:10091000CF93DF930E943704EC0188E791E00E94B7
:1009200037048C0F9D1FDF91CF910895682F88E6C3
:100930000E94BD001092C6028093C5020895682FE0
:1009400070E090E080E04AE00C94440481E0809301
:100950005A0288E680937C0210925B0210927D021C
:100960006FE084E693E00E9488030E94FF0061E04C
:1009700088E60E94BD001092C6028093C5020E94C4
:10098000AA0008951F920F920FB60F9211242F9371
:100990003F934F935F936F937F938F939F93AF9307
:1009A000BF93EF93FF9387EC92E00E94DC01FF91ED
:1009B000EF91BF91AF919F918F917F916F915F91D7
:1009C0004F913F912F910F900FBE0F901F90189550
:1009D0001F920F920FB60F9211242F938F939F9314
:1009E000EF93FF93E091D702F091D8028081E091DC
:1009F000DD02F091DE0282FD1BC090818091E00259
:100A00008F5F8F732091E102821741F0E091E00245
:100A1000F0E0E953FD4F958F8093E002FF91EF9155
:100A20009F918F912F910F900FBE0F901F9018954F
:100A30008081F4CF1F920F920FB60F9211242F9343
:100A40003F938F939F93AF93BF9380914E0290916A
:100A50004F02A0915002B091510230914D0223E01B
:100A6000230F2D3758F50196A11DB11D20934D027E
:100A700080934E0290934F02A0935002B093510284
:100A80008091520290915302A0915402B09155026C
:100A90000196A11DB11D8093520290935302A09321
:100AA0005402B0935502BF91AF919F918F913F91A6
:100AB0002F910F900FBE0F901F90189526E8230FCF
:100AC0000296A11DB11DD2CF1F920F920FB60F92A9
:100AD00011242F933F934F935F936F937F938F9343
:100AE0009F93AF93BF93EF93FF938091B900887F5B
:100AF000803609F44AC0F0F5883209F4A7C018F529
:100B0000803109F49BC0B8F4882309F4F9C0883017
:100B100009F494C0FF91EF91BF91AF919F918F9194
:100B20007F916F915F914F913F912F910F900FBEE9
:100B30000F901F901895883109F488C0803251F7C2
:100B40008093A20214C0803409F49DC040F4803325
:100B5000B9F38833F9F68093A20285ECB0C08035F2
:100B600009F485C0883509F496C0883499F60E9446
:100B70001303D0CF883909F48CC038F5883729F0B1
:100B800050F4883611F0803729F683E08093A40270
:100B900010924C0257C0883809F47BC0803919F094
:100BA000803809F0B7CF80914C02803208F071C0D4
:100BB000E0914C0281E08E0F80934C028091BB004B
:100BC000F0E0E45DFD4F80833DC0803B39F0E0F410
:100BD000803A09F479C0883A09F09CCF84E0809388
:100BE000A40210922B0210922A02E0915802F09176
:100BF0005902099580912A0281110FC081E08093EA
:100C00002A0210920A0209C0803C09F4A6CF883C4F
:100C100009F4A3CF883B09F07DCFE0912B0281E05E
:100C20008E0F80932B02F0E0E65FFD4F8081809372
:100C3000BB0090912B0280912A0229C080919F02D3
:100C40008093BB0085EC8093BC0064CF9091A1029F
:100C50008091A002981758F5E091A10281E08E0FD3
:100C60008093A102F0E0E258FD4F8081E9CFE0914E
:100C7000A10281E08E0F8093A1028091BB00F0E081
:100C8000E258FD4F80839091A1028091A0029817B5
:100C9000C8F285E8D8CFE091A10281E08E0F809361
:100CA000A1028091BB00F0E0E258FD4F808380916B
:100CB000A30281115CCF81E080939E0284EA80933D
:100CC000BC001092A40226CF85EC8093BC00109249
:100CD000A40280914C02803230F4E0914C02F0E0AA
:100CE000E45DFD4F108260914C0270E0E09156028D
:100CF000F09157028CE292E0099510924C020ACFD3
:100D00001092A20234CFE7ECF2E01382128288EE56
:100D100093E0A0E0B0E084839583A683B78328E5C1
:100D200031E03183208325EC30E03587248724ECC3
:100D300030E03787268720EC30E0318B208B21ECA8
:100D400030E0338B228B22EC30E0358B248B26EC89
:100D500030E0378B268B118E128E138E148EE4E6C4
:100D6000F3E01382128284839583A683B7838AE695
:100D700091E0918380830895CF93DF93CDB7DEB761
:100D80002B970FB6F894DEBF0FBECDBF789484B515
:100D9000826084BD84B5816084BD85B5826085BD77
:100DA00085B5816085BD80916E00816080936E0005
:100DB00010928100809181008260809381008091F7
:100DC00081008160809381008091800081608093A8
:100DD00080008091B10084608093B1008091B00068
:100DE00081608093B00080917A00846080937A0063
:100DF00080917A00826080937A0080917A0081608D
:100E000080937A0080917A00806880937A001092B3
:100E1000C100E1EBF0E02491EDE9F0E0849188235A
:100E200099F090E0880F991FFC01EA57FF4FA591B8
:100E3000B491FC01E458FF4F859194918FB7F894D9
:100E4000EC91E22BEC938FBFE091D702F091D802A6
:100E500082E08083E091D702F091D8021082E09185
:100E6000D302F091D4021082E091D502F091D60223
:100E700080E180831092DF02E091DB02F091DC02DE
:100E800086E08083E091D902F091DA02808180616E
:100E90008083E091D902F091DA02808188608083BA
:100EA000E091D902F091DA02808180688083E0913C
:100EB000D902F091DA0280818F7D80831092C60280
:100EC0001092C50210925B0210927D021092A40251
:100ED00001E00093A30210929E0261E082E10E9471
:100EE000700261E083E10E9470028091B9008E7F00
:100EF0008093B9008091B9008D7F8093B90088E418
:100F00008093B80085E48093BC008CE591E09093D9
:100F10005902809358028DE591E090935702809397
:100F2000560200935A0288E680937C0210925B027C
:100F300010927D020E94FF0081113AC00E94A60417
:100F400090E0880F892F881F990B892B09F4EFC037
:100F50008DE891E00E9488044BE050E061EC70E085
:100F6000CE0101960E94480BCE010A960E94BA0358
:100F7000082FE981E154E33108F02DC00E2E000C5A
:100F8000FF0BEB53F84F0C94770DFE09EB07EB07C3
:100F9000120AEB07140AEB07EB07EB07E207EB0774
:100FA000EB07050A100A0E0AEB07EB07EB070C0A22
:100FB0008BE791E00E94880487EC92E00E94500247
:100FC0000E947D0D8A8111E0813629F08B8116E027
:100FD0008E3609F017E0CE0105960E94BA03F82E6E
:100FE00048E050E068EB70E0CE0101960E94480BAB
:100FF000CE0101960E94BA03D82ECE0104960E941B
:10100000BA03C82ECE0107960E94BA03B82E81E01B
:1010100080935A0288E680937C0210925B021092C1
:101020007D0260E084E693E00E948803BAE0EB2E44
:101030008B2D6E2D0E94350D682F660F680F660F81
:101040006B0D84E693E00E9488038C2D6E2D0E9428
:10105000350D682F660F680F660F6C0D84E693E000
:101060000E9488038D2D6E2D0E94350D682F660F0E
:10107000680F660F6D0D84E693E00E9488034F2D84
:10108000612F802F90E00E94C703069667E070E012
:101090000E94410D682F811101C067E084E693E052
:1010A0000E948803AAE0EA2E8F2D6E2D0E94350D36
:1010B000682F660F680F660F6F0D84E693E00E943D
:1010C0008803812F6E2D0E94350D682F660F680FE3
:1010D000660F610F84E693E00E948803802F6E2DD7
:1010E0000E94350D682F660F680F660F600F84E64B
:1010F00093E00E9488030E94FF000E94A604182F1C
:1011000081E080935A0288E680937C0210925B0211
:1011100010927D026FE084E693E00E948803612FC5
:101120006F7784E693E00E9488030E94FF0018E630
:10113000F0E02F2EF0E03F2E60E08DE00E94700284
:1011400060E67AEE80E090E00E94E10261E08DE0EE
:101150000E94700268EE73E080E090E00E94E1027D
:1011600081E080935A0210937C0210925B021092ED
:101170007D0260E084E693E00E9488030E94FF0005
:1011800087E090E00E9496040E94AA008F77282FA3
:1011900030E094E0359527959A95E1F7922F990FD5
:1011A000990F022F091B000F080F0E94AA009C0133
:1011B00044E0359527954A95E1F72F703327922F14
:1011C000990F990FF22EF91AFF0CF80E0E94AA003F
:1011D0009C0154E0359527955A95E1F72F703327F8
:1011E000922F990F990FE22EE91AEE0CE80E0E9449
:1011F000AA000E94AA009C0164E0359527956A9593
:10120000E1F72F703327922F990F990FD22ED91A09
:10121000DD0CD80E0E94AA009C0174E0359527953C
:101220007A95E1F72F703327922F990F990FC22EDD
:10123000C91ACC0CC80E0E94AA009C01E4E03595A6
:101240002795EA95E1F72F703327922F990F990F81
:10125000291B220F820F682F70E06053784F89831B
:10126000CA82DB82EC82FD820E83072E000C880B83
:10127000990B4AE00E9444048FE20E944B028A814B
:101280000E949F048FE20E944B028B810E949F0468
:1012900081EB91E00E94370489814B816A8190E063
:1012A0000E94C703069667E070E00E94410D4CE083
:1012B000489F9001499F300D1124C90180509F4FD4
:1012C0000E94370484EB91E00E9437048C810E94D5
:1012D0009F048AE30E944B028D810E949F048AE34F
:1012E0000E944B028E810E949F0488E791E00E9439
:1012F000370487EB91E00E943704CE0101960E94EB
:10130000F3034AE00E94440483ED91E00E94370415
:10131000CE0101960E94F30320E831E541E050E060
:101320000E94550DCA01B9014AE00E94440488EDAB
:1013300091E00E948804CE0101960E94F3032B01E4
:101340003C0152E3451A59E5550A53E6650A58E34C
:10135000750AC301B2012CE330E040E050E00E9486
:10136000550DC62ECA01B9012CE330E040E050E033
:101370000E94550DB62EC301B20120E13EE040E0CF
:1013800050E00E94550DCA01B90128E130E040E06B
:1013900050E00E94550DA62EC301B20120E831E5B0
:1013A00041E050E00E94550D790100E0202F2370AC
:1013B00081E090E011F090E080E031E0300FAC018E
:1013C00043595E4FE416F50688F5EDECF0E0DD24B8
:1013D000D3945CE0D51691F18491211104C092E080
:1013E000D91201C08F5F90E031E03D0D3196E816D3
:1013F000F90620F1E81AF90AD32EEBCF8B8114E01D
:10140000823709F4E8CD18E0E6CD8B8113E082370E
:1014100009F4E1CD15E0DFCD19E0DDCD1AE0DBCD3B
:101420001BE0D9CD1CE0D7CD12E0D5CD43E95EEF6E
:10143000481B590BE40EF51E032FB8CF8AED91E03F
:101440000E943704602F70E06053784F072E000C25
:10145000880B990B4AE00E9444048FE20E944B02E1
:101460008D2D0E949F048FE20E944B0281E08E0D21
:101470000E949F0480E20E944B028A2D0E949F04DA
:101480008AE30E944B028B2D0E949F048AE30E94F4
:101490004B028C2D0E949F0488E791E00E94370444
:1014A0008CEE91E00E94370481E080935A02109301
:1014B0007C0210925B0210927D0261E184E693E06F
:1014C0000E9488030E94FF0082E090E00E94960440
:1014D0000E94AA00082F0E94AA00BC0186E0759510
:1014E00067958A95E1F763707727072E000C880BC4
:1014F000990B0E94580B20E030E040E85EE30E9428
:10150000B70B6B017C01602F000F770B880B990BD9
:101510000E94580B9B01AC01C701B6010E94900CC0
:101520006B017C014B015C01AC019B010E94300D01
:101530008823F1F08AEF91E00E94370486E092E080
:101540000E94880488E791E00E94370468EB7BE002
:1015500080E090E00E94E1022114310409F4ECCD16
:101560000E94C801882309F4E7CD0E940000E4CD61
:1015700026013701E89477F82FEF3FEF4FE75FE759
:10158000C301B2010E94300D81110DC02FEF3FEF5A
:101590004FE75FE7C301B2010E94510B18161CF41C
:1015A0008EEF91E0C9CF2FEF3FEF4FE75FE4C70128
:1015B000B6010E942B0D18161CF482E092E0BCCFFD
:1015C0002FEF3FEF4FE75FECC701B6010E94510BD1
:1015D00087FDF3CF20E030E0A901C701B6010E94EA
:1015E000510B87FF09C08DE20E944B024601570153
:1015F000B7FAB094B7F8B0942AE037ED43EA5BE36A
:10160000C501B4010E94900C4B015C010E94FC0CCE
:101610006B017C010E94560B9B01AC01C501B4011A
:101620000E948F0C4B015C014AE0C701B6010E9489
:1016300044048EE20E944B0220E030E040E251E49C
:10164000C501B4010E94B70B4B015C010E94FC0C68
:101650006B01F12CE12C4AE0C701B6010E94440461
:10166000C701B6010E94560B9B01AC01C501B40134
:101670000E948F0C20E030E040E251E40E94B70B62
:101680000E94FC0C90E080E04AE00E94440456CFA7
:10169000FB01DC0102C005900D9241505040D8F78B
:1016A00008950E94930B08F481E00895E89409C01E
:1016B00097FB3EF490958095709561957F4F8F4F85
:1016C0009F4F9923A9F0F92F96E9BB279395F6959B
:1016D000879577956795B795F111F8CFFAF4BB0F19
:1016E00011F460FF1BC06F5F7F4F8F4F9F4F16C07D
:1016F000882311F096E911C0772321F09EE8872F07
:10170000762F05C0662371F096E8862F70E060E0C2
:101710002AF09A95660F771F881FDAF7880F96953B
:10172000879597F90895990F0008550FAA0BE0E8DF
:10173000FEEF16161706E807F907C0F01216130693
:10174000E407F50798F0621B730B840B950B39F4D3
:101750000A2661F0232B242B252B21F408950A2639
:1017600009F4A140A6958FEF811D811D08950E9467
:10177000CA0B0C943B0C0E942D0C38F00E94340CC8
:1017800020F0952311F00C94240C0C942A0C1124B5
:101790000C946F0C0E944C0C70F3959FC1F3950F45
:1017A00050E0551F629FF001729FBB27F00DB11DE5
:1017B000639FAA27F00DB11DAA1F649F6627B00D75
:1017C000A11D661F829F2227B00DA11D621F739F5E
:1017D000B00DA11D621F839FA00D611D221F749F6C
:1017E0003327A00D611D231F849F600D211D822FB3
:1017F000762F6A2F11249F5750409AF0F1F08823DA
:101800004AF0EE0FFF1FBB1F661F771F881F915006
:101810005040A9F79E3F510580F00C94240C0C9485
:101820006F0C5F3FE4F3983ED4F386957795679508
:10183000B795F795E7959F5FC1F7FE2B880F911D30
:101840009695879597F9089597F99F6780E870E0D6
:1018500060E008959FEF80EC089500240A94161626
:10186000170618060906089500240A94121613068E
:10187000140605060895092E0394000C11F488231C
:1018800052F0BB0F40F4BF2B11F460FF04C06F5F38
:101890007F4F8F4F9F4F089557FD9058440F551F0E
:1018A00059F05F3F71F04795880F97FB991F61F0E2
:1018B0009F3F79F087950895121613061406551F59
:1018C000F2CF4695F1DF08C0161617061806991FC5
:1018D000F1CF86957105610508940895E894BB27BA
:1018E00066277727CB0197F908950E94800CA59F62
:1018F000900DB49F900DA49F800D911D112408950B
:10190000A29FB001B39FC001A39F700D811D112440
:10191000911DB29F700D811D1124911D0895505885
:10192000BB27AA270E94A70C0C943B0C0E942D0CED
:1019300038F00E94340C20F039F49F3F19F426F45B
:101940000C942A0C0EF4E095E7FB0C94240CE92F80
:101950000E944C0C58F3BA17620773078407950767
:1019600020F079F4A6F50C946E0C0EF4E0950B2E95
:10197000BA2FA02D0B01B90190010C01CA01A001E1
:101980001124FF27591B99F0593F50F4503E68F13C
:101990001A16F040A22F232F342F4427585FF3CF7D
:1019A000469537952795A795F0405395C9F77EF44E
:1019B0001F16BA0B620B730B840BBAF09150A1F097
:1019C000FF0FBB1F661F771F881FC2F70EC0BA0F1D
:1019D000621F731F841F48F4879577956795B795A5
:1019E000F7959E3F08F0B0CF9395880F08F09927A0
:1019F000EE0F9795879508950E94540C88F09F5795
:101A000098F0B92F9927B751B0F0E1F0660F771F22
:101A1000881F991F1AF0BA95C9F714C0B13091F018
:101A20000E946E0CB1E008950C946E0C672F782F15
:101A30008827B85F39F0B93FCCF3869577956795DD
:101A4000B395D9F73EF490958095709561957F4F49
:101A50008F4F9F4F08950E94930B08F48FEF0895C6
:101A60000E94930B880B990B0895991B79E004C091
:101A7000991F961708F0961B881F7A95C9F78095CD
:101A80000895AA1BBB1B51E107C0AA1FBB1FA617C5
:101A9000B70710F0A61BB70B881F991F5A95A9F717
:101AA00080959095BC01CD010895A1E21A2EAA1B44
:101AB000BB1BFD010DC0AA1FBB1FEE1FFF1FA217FE
:101AC000B307E407F50720F0A21BB30BE40BF50BFB
:101AD000661F771F881F991F1A9469F76095709584
:101AE000809590959B01AC01BD01CF010895EE0F4B
:101AF000FF1F0590F491E02D099481E090E0F894A7
:081B00000C94820DF894FFCF54
:101B080053756E6461790000000000004D6F6E64CB
:101B18006179000000000000547565736461790004
:101B2800000000005765646E657364617900000009
:101B380054687572736461790000000046726964C4
:101B48006179000000000000536174757264617966
:101B58000000000000000000FE015E018B01500241
:101B6800BC019A01AE010000000088035B03B703C3
:101B780044035403970045030D0A00436F756C64D2
:101B88006E27742066696E64205254430052544391
:101B9800206C6F737420706F7765722C206C65747D
:101BA800277320736574207468652074696D6521D6
:101BB800002028002920002073696E6365206D6964
:101BC800646E6967687420312F312F3139373020BE
:101BD8003D200073203D20006400206E6F77202B8D
:101BE800203764202B203330733A200054656D7001
:101BF800657261747572653A20006E616E00696E77
:0A1C080066006F76660020430000BE
:00000001FF
