:100000000C9468000C9490000C9490000C94900058
:100010000C9490000C9490000C9490000C94900020
:100020000C9490000C9490000C9490000C94900010
:100030000C9490000C9490000C9490000C94900000
:100040000C94DE040C9490000C94AC040C94860484
:100050000C9490000C9490000C9490000C949000E0
:100060000C9428050C94900031353A35343A3530EB
:10007000004A756E2032362032303231001F1C1F8C
:100080001E1F1E1F1F1E1F1E00000000250028002F
:100090002B00040404040404040402020202020209
:1000A000030303030303010204081020408001023C
:1000B00004081020010204081020000000080002BB
:1000C00001000003040700000000000000004706D4
:1000D00011241FBECFEFD8E0DEBFCDBF23E0AAE0E2
:1000E000B2E001C01D92A037B207E1F712E0A0E034
:1000F000B1E0E8E6FAE102C005900D92AA30B1073E
:10010000D9F710E0C8E6D0E004C02197FE010E94B4
:10011000270DC736D107C9F70E9480060C94320D0F
:100120000C9400009091C6028091C5022FEF3FEF22
:10013000981748F4E92FF0E0EB55FD4F208130E0AF
:100140009F5F9093C602C90108959091C602809165
:10015000C5022FEF3FEF981748F4E92FF0E0EB5579
:10016000FD4F208130E09F5F9093C602C901089542
:100170009091A4029111FCCF91E09093A4029093EE
:10018000A3022FEF2093A2021092A102260F209328
:10019000A00290939F0290919F02880F892B8093D9
:1001A0009F0280919E028130F9F410929E0280910C
:1001B0009F028093BB008091BC0083FDF8CF85EC4B
:1001C0008093BC008091A4028130E1F38091A10270
:1001D000861710F46091A102AEE7B2E0E5EAF2E022
:1001E00080E0861303C0089585EEEACF9D91919338
:1001F0008F5FF7CF20917D0281E0213208F044C06B
:100200008091A4028111FCCF80917C0292E09093B6
:10021000A40291E09093A3029FEF9093A202109208
:10022000A1022093A002ACE5B2E0EEE7F2E090E09C
:10023000291331C010929F0290919F02880F892B41
:1002400080939F0280919E02813049F510929E0218
:1002500080919F028093BB008091BC0083FDF8CF0A
:1002600085EC8093BC008091A4028230E1F3809100
:10027000A2028F3FB1F08091A2028032A1F0809162
:10028000A202803391F084E010925B0210927D0212
:1002900010925A0208953D9131939F5FC9CF85EE28
:1002A000E0CF80E0F1CF82E0EFCF83E0EDCF90E0D0
:1002B000FC01E654FF4F2491FC01EA55FF4F3491B5
:1002C000FC01EE56FF4FE491EE23B1F0222339F00A
:1002D0002330E9F090F4213001F1223011F1F0E007
:1002E000EE0FFF1FE857FF4FA591B4918FB7F89419
:1002F000EC913E2B3C938FBF08952730A9F0283016
:10030000C9F0243061F7809180008F7D03C0809117
:1003100080008F7780938000E2CF84B58F7784BD93
:10032000DECF84B58F7DFBCF8091B0008F77809337
:10033000B000D5CF8091B0008F7DF9CF089508959A
:10034000AF92BF92CF92DF92EF92FF920F931F93E3
:10035000CF93DF936C017B018B01040F151FEB0121
:100360005E01AE18BF08C017D10759F06991D601D8
:10037000ED91FC910190F081E02DC6010995892B4A
:1003800079F7C501DF91CF911F910F91FF90EF9009
:10039000DF90CF90BF90AF900895FC01538D448DB6
:1003A000252F30E0842F90E0821B930B541710F020
:1003B000CF96089501970895FC01918D828D98172D
:1003C00061F0A28DAE0FBF2FB11D5D968C91928D05
:1003D0009F5F9F73928F90E008958FEF9FEF089536
:1003E000FC01918D828D981731F0828DE80FF11DFF
:1003F000858D90E008958FEF9FEF0895FC01918D1A
:10040000228D892F90E0805C9F4F821B91098F7312
:100410009927089587EC92E00E94FE0121E0892B44
:1004200009F420E0822F089580E090E0892B29F0E4
:100430000E940A0281110C9400000895FC01A48D11
:10044000A80FB92FB11DA35ABF4F2C91848D90E0F6
:1004500001968F739927848FA689B7892C93A089D9
:10046000B1898C91837080648C93938D848D981363
:1004700006C00288F389E02D80818F7D80830895F6
:10048000EF92FF920F931F93CF93DF93EC0181E0E4
:10049000888F9B8D8C8D98131AC0E889F98980818B
:1004A00085FF15C09FB7F894EE89FF896083E889BE
:1004B000F98980818370806480839FBF81E090E0B0
:1004C000DF91CF911F910F91FF90EF900895F62E3D
:1004D0000B8D10E00F5F1F4F0F731127E02E8C8DD7
:1004E0008E110CC00FB607FCFACFE889F98980811C
:1004F00085FFF5CFCE010E941E02F1CFEB8DEC0FF0
:10050000FD2FF11DE35AFF4FF0829FB7F8940B8F38
:10051000EA89FB8980818062CFCF682F87EC92E0E7
:100520000C944002CF93DF93EC01888D8823B9F0BF
:10053000AA89BB89E889F9898C9185FD03C08081EE
:1005400086FD0DC00FB607FCF7CF8C9185FFF2CF6B
:10055000808185FFEDCFCE010E941E02E9CFDF91A1
:10056000CF9108953FB7F894809152029091530231
:10057000A0915402B091550226B5A89B05C02F3F0B
:1005800019F00196A11DB11D3FBFBA2FA92F982FB9
:100590008827BC01CD01620F711D811D911D42E0B4
:1005A000660F771F881F991F4A95D1F7089585ED2B
:1005B0008093BC008091BC0084FDFCCF1092A4020B
:1005C000089520912A02260F3327331F2132310547
:1005D000ECF42091A402FC0190E080E0243069F06A
:1005E00082E00895A0912A022191AC01465F5D4FFF
:1005F000A40FB52FB11D2C930196861798F3809107
:100600002A02680F60932A0280E0089581E008952D
:100610000895E091C6028091C502E81730F4F0E039
:10062000EB55FD4F808190E008958FEF9FEF089587
:100630008091C5029091C602891B990B0895CF92B3
:10064000DF92EF92FF920F931F93CF93DF937C0182
:10065000CB018A0120915A02222389F0EB016B0120
:10066000C40ED51ECC15DD0569F06991D701ED9159
:10067000FC910190F081E02DC7010995F3CF642F23
:100680000E94E102C801DF91CF911F910F91FF906D
:10069000EF90DF90CF900895CF93DF931F92CDB767
:1006A000DEB7698320915A022223F9F020917D025E
:1006B000203258F021E030E0FC013383228390E0C7
:1006C00080E00F90DF91CF91089580915B02E82F39
:1006D000F0E0E45AFD4F998190838F5F80935B0235
:1006E00080937D0281E090E0ECCF61E0CE01019645
:1006F0000E94E102F7CF90E080E00895FC01908134
:1007000090539A3008F090E0818180532AE0929FC4
:10071000800D11240895DC0150E0EDE7F0E081E068
:10072000861730F49491490F511D8F5F3196F8CFA1
:10073000633038F0CD0183709927892B11F44F5F16
:100740005F4F9D012D5F3F4F369527953695279535
:100750006DE671E0A69FC001A79F900DB69F900D1A
:1007600011240197820F931F840F951F0895EF9214
:10077000FF920F931F93CF93DF93EC0188814A81FF
:10078000698190E00E948B039C01A8E1B0E00E9487
:10079000300C2B817B018C01E20EF11C011D111D1F
:1007A000A8019701ACE3B0E00E94250C2C817B01ED
:1007B0008C01E20EF11C011D111DA80197010E9480
:1007C000250CAB01BC019D81892F90E0B0E0A0E039
:1007D00080589C4BA249B74C8A019B01080F191FF6
:1007E0002A1F3B1FC901B801DF91CF911F910F91C3
:1007F000FF90EF900895FC0101900020E9F73197F8
:10080000AF01481B590BBC0187EC92E00C94A0018E
:100810008F929F92AF92BF920F931F93CF93DF93CC
:10082000CDB7DEB7A1970FB6F894DEBF0FBECDBF30
:1008300019A2423008F44AE08E010F5D1F4F842E4A
:10084000912CB12CA12CA50194010E94050DE62F3D
:10085000B901CA01EA30F4F4E05DD801EE938D01EC
:10086000232B242B252B79F790E080E0109719F0AB
:10087000CD010E94FB03A1960FB6F894DEBF0FBE18
:10088000CDBFDF91CF911F910F91BF90AF909F90FF
:100890008F900895E95CE1CFCF93DF930E94FB0333
:1008A000EC0188E791E00E94FB038C0F9D1FDF9114
:1008B000CF910895682F88E60E94B8001092C60272
:1008C0008093C5020895682F70E090E080E04AE0D0
:1008D0000C94080481E080935A0288E680937C029D
:1008E00010925B0210927D026FE084E693E00E941A
:1008F0004C030E94FA0061E088E60E94B800109262
:10090000C6028093C5020E94A50008951F920F920F
:100910000FB60F9211242F933F934F935F936F93D2
:100920007F938F939F93AF93BF93EF93FF9387EC46
:1009300092E00E941E02FF91EF91BF91AF919F91B3
:100940008F917F916F915F914F913F912F910F9078
:100950000FBE0F901F9018951F920F920FB60F9217
:1009600011242F938F939F93EF93FF93E091D702DE
:10097000F091D8028081E091DD02F091DE0282FDEB
:100980001BC090818091E0028F5F8F732091E10204
:10099000821741F0E091E002F0E0E953FD4F958FBE
:1009A0008093E002FF91EF919F918F912F910F9093
:1009B0000FBE0F901F9018958081F4CF1F920F9259
:1009C0000FB60F9211242F933F938F939F93AF9362
:1009D000BF9380914E0290914F02A0915002B0912E
:1009E000510230914D0223E0230F2D3758F5019627
:1009F000A11DB11D20934D0280934E0290934F0292
:100A0000A0935002B09351028091520290915302F0
:100A1000A0915402B09155020196A11DB11D809381
:100A2000520290935302A0935402B0935502BF9187
:100A3000AF919F918F913F912F910F900FBE0F908B
:100A40001F90189526E8230F0296A11DB11DD2CF45
:100A50001F920F920FB60F9211242F933F934F9333
:100A60005F936F937F938F939F93AF93BF93EF9316
:100A7000FF938091B900887F803609F44AC0F0F571
:100A8000883209F4A7C018F5803109F49BC0B8F486
:100A9000882309F4F9C0883009F494C0FF91EF91DC
:100AA000BF91AF919F918F917F916F915F914F9186
:100AB0003F912F910F900FBE0F901F901895883186
:100AC00009F488C0803251F78093A20214C08034A8
:100AD00009F49DC040F48033B9F38833F9F680936C
:100AE000A20285ECB0C0803509F485C0883509F4D0
:100AF00096C0883499F60E94D702D0CF883909F47D
:100B00008CC038F5883729F050F4883611F08037DA
:100B100029F683E08093A40210924C0257C08838D3
:100B200009F47BC0803919F0803809F0B7CF809183
:100B30004C02803208F071C0E0914C0281E08E0FCF
:100B400080934C028091BB00F0E0E45DFD4F808318
:100B50003DC0803B39F0E0F4803A09F479C0883A2E
:100B600009F09CCF84E08093A40210922B02109293
:100B70002A02E0915802F0915902099580912A02C7
:100B800081110FC081E080932A0210920A0209C0ED
:100B9000803C09F4A6CF883C09F4A3CF883B09F038
:100BA0007DCFE0912B0281E08E0F80932B02F0E04D
:100BB000E65FFD4F80818093BB0090912B02809176
:100BC0002A0229C080919F028093BB0085EC80930C
:100BD000BC0064CF9091A1028091A002981758F5B3
:100BE000E091A10281E08E0F8093A102F0E0E25833
:100BF000FD4F8081E9CFE091A10281E08E0F8093CB
:100C0000A1028091BB00F0E0E258FD4F80839091FB
:100C1000A1028091A0029817C8F285E8D8CFE09190
:100C2000A10281E08E0F8093A1028091BB00F0E0D1
:100C3000E258FD4F80838091A30281115CCF81E057
:100C400080939E0284EA8093BC001092A40226CF77
:100C500085EC8093BC001092A40280914C028032FB
:100C600030F4E0914C02F0E0E45DFD4F10826091C1
:100C70004C0270E0E0915602F09157028CE292E053
:100C8000099510924C020ACF1092A20234CFE7ECE1
:100C9000F2E01382128288EE93E0A0E0B0E0848359
:100CA0009583A683B78328E531E03183208325EC43
:100CB00030E03587248724EC30E03787268720EC26
:100CC00030E0318B208B21EC30E0338B228B22EC17
:100CD00030E0358B248B26EC30E0378B268B118E61
:100CE000128E138E148EE4E6F3E013821282848354
:100CF0009583A683B7838AE691E0918380830895E4
:100D0000CF93DF93CDB7DEB72B970FB6F894DEBF46
:100D10000FBECDBF789484B5826084BD84B58160F8
:100D200084BD85B5826085BD85B5816085BD8091B6
:100D30006E00816080936E0010928100809181002E
:100D40008260809381008091810081608093810026
:100D5000809180008160809380008091B1008460E8
:100D60008093B1008091B00081608093B000809149
:100D70007A00846080937A0080917A008260809308
:100D80007A0080917A00816080937A0080917A0065
:100D9000806880937A001092C100E091D702F091B0
:100DA000D80282E08083E091D702F091D8021082CD
:100DB000E091D302F091D4021082E091D502F0913B
:100DC000D60280E180831092DF02E091DB02F09195
:100DD000DC0286E08083E091D902F091DA02808122
:100DE00080618083E091D902F091DA02808188608D
:100DF0008083E091D902F091DA028081806880835B
:100E0000E091D902F091DA0280818F7D8083109287
:100E1000C6021092C50210925B0210927D021092DF
:100E2000A40201E00093A30210929E0282E10E94BC
:100E3000570183E10E9457018091B9008E7F809312
:100E4000B9008091B9008D7F8093B90088E48093C8
:100E5000B80085E48093BC008EE991E0909359023C
:100E6000809358028FE991E0909357028093560245
:100E700000935A0288E680937C0210925B021092E3
:100E80007D020E94FA0081113AC00E946A0490E03B
:100E9000880F892F881F990B892B09F4EFC08DE8E3
:100EA00091E00E944C044BE050E061E770E0CE011D
:100EB00001960E94F80ACE010A960E947E03082F2E
:100EC000E981E154E33108F02DC00E2E000CFF0B38
:100ED000E459F84F0C94270D8F0992079207A30944
:100EE0009207A5099207920792078907920792072E
:100EF0009609A1099F099207920792079D098BE71E
:100F000091E00E944C0487EC92E00E9492020E94C1
:100F10002D0D8A8111E0813629F08B8116E08E3605
:100F200009F017E0CE0105960E947E03F82E48E0F6
:100F300050E068E670E0CE0101960E94F80ACE010A
:100F400001960E947E03D82ECE0104960E947E0355
:100F5000C82ECE0107960E947E03B82E81E08093B2
:100F60005A0288E680937C0210925B0210927D0206
:100F700060E084E693E00E944C038AE0E82E8B2D2B
:100F80006E2D0E94E50C682F660F680F660F6B0DC3
:100F900084E693E00E944C038C2D6E2D0E94E50C9C
:100FA000682F660F680F660F6C0D84E693E00E9451
:100FB0004C038D2D6E2D0E94E50C682F660F680F77
:100FC000660F6D0D84E693E00E944C034F2D612F58
:100FD000802F90E00E948B03069667E070E00E94ED
:100FE000F10C682F811101C067E084E693E00E9454
:100FF0004C03BAE0EB2E8F2D6E2D0E94E50C682F6E
:10100000660F680F660F6F0D84E693E00E944C0335
:10101000812F6E2D0E94E50C682F660F680F660FFA
:10102000610F84E693E00E944C03802F6E2D0E9496
:10103000E50C682F660F680F660F600F84E693E07B
:101040000E944C030E94FA000E946A04182F81E05B
:1010500080935A0288E680937C0210925B02109281
:101060007D026FE084E693E00E944C03612F6F776E
:1010700084E693E00E944C030E94FA0033243394E8
:1010800018E6ACE02A2E30925A0210937C0210929D
:101090005B0210927D0260E084E693E00E944C03C4
:1010A0000E94FA0087E090E00E945A040E94A50086
:1010B0008F77282F30E044E0359527954A95E1F762
:1010C000922F990F990F022F091B000F080F0E94F2
:1010D000A5009C0154E0359527955A95E1F72F70AE
:1010E0003327922F990F990FF22EF91AFF0CF80E51
:1010F0000E94A5009C0164E0359527956A95E1F76B
:101100002F703327922F990F990FE22EE91AEE0CC8
:10111000E80E0E94A5000E94A5009C0174E0359590
:1011200027957A95E1F72F703327922F990F990F12
:10113000D22ED91ADD0CD80E0E94A5009C01E4E045
:1011400035952795EA95E1F72F703327922F990F60
:10115000990FC22EC91ACC0CC80E0E94A5009C0182
:10116000F4E035952795FA95E1F72F703327922F04
:10117000990F990F291B220F820F682F70E060537F
:10118000784F8983CA82DB82EC82FD820E83072E30
:10119000000C880B990B4AE00E9408048FE20E9421
:1011A0008D028A810E9463048FE20E948D028B81EE
:1011B0000E94630481EB91E00E94FB0389814B81D3
:1011C0006A8190E00E948B03069667E070E00E94BF
:1011D000F10C289E9001299E300D1124C9018050E8
:1011E0009F4F0E94FB0384EB91E00E94FB038C81E4
:1011F0000E9463048AE30E948D028D810E94630431
:101200008AE30E948D028E810E94630488E791E048
:101210000E94FB0387EB91E00E94FB03CE01019645
:101220000E94B7034AE00E94080483ED91E00E9407
:10123000FB03CE0101960E94B70320E831E541E0AF
:1012400050E00E94050DCA01B9014AE00E9408045D
:1012500088ED91E00E944C04CE0101960E94B703F4
:101260002B013C0122E3421A29E5520A23E6620AD5
:1012700028E3720AC301B2012CE330E040E050E001
:101280000E94050DC62ECA01B9012CE330E040E0F2
:1012900050E00E94050DB62EC301B20120E13EE0F0
:1012A00040E050E00E94050DCA01B90128E130E09C
:1012B00040E050E00E94050DA62EC301B20120E8D7
:1012C00031E541E050E00E94050D790100E0202F5A
:1012D000237081E090E011F090E080E031E0300F89
:1012E000AC0143595E4FE416F50688F5EDE7F0E0F2
:1012F000DD24D3945CE0D51691F18491211104C0D2
:1013000092E0D91201C08F5F90E031E03D0D31963F
:10131000E816F90620F1E81AF90AD32EEBCF8B81F3
:1013200014E0823709F4FECD18E0FCCD8B8113E088
:10133000823709F4F7CD15E0F5CD19E0F3CD1AE0C9
:10134000F1CD1BE0EFCD1CE0EDCD12E0EBCD43E99C
:101350005EEF481B590BE40EF51E032FB8CF8AED44
:1013600091E00E94FB03602F70E06053784F072EDE
:10137000000C880B990B4AE00E9408048FE20E943F
:101380008D028D2D0E9463048FE20E948D0281E008
:101390008E0D0E94630480E20E948D028A2D0E94BD
:1013A00063048AE30E948D028B2D0E9463048AE30A
:1013B0000E948D028C2D0E94630488E791E00E94B8
:1013C000FB038CEE91E00E94FB0330925A021093D3
:1013D0007C0210925B0210927D0261E184E693E050
:1013E0000E944C030E94FA0082E090E00E945A049E
:1013F0000E94A500082F0E94A500BC0196E07595EB
:1014000067959A95E1F763707727072E000C880B94
:10141000990B0E94080B20E030E040E85EE30E9458
:10142000670B6B017C01602F000F770B880B990B0A
:101430000E94080B9B01AC01C701B6010E94400C41
:101440006B017C014B015C01AC019B010E94E00C33
:101450008823F1F18AEF91E00E94FB0386E092E09D
:101460000E944C0488E791E00E94FB030E94B202B4
:101470006B017C0188EB882E8BE0982EA12CB12C7F
:101480000E94B2026C197D098E099F09683E734063
:1014900081059105A8F321E0821A9108A108B108FD
:1014A00048EEC40E43E0D41EE11CF11C81149104EB
:1014B000A104B10429F780E090E0892B09F4E3CD81
:1014C0000E940A02882309F4DECD0E940000DBCDD1
:1014D00026013701E89477F82FEF3FEF4FE75FE7FA
:1014E000C301B2010E94E00C81110DC02FEF3FEF4C
:1014F0004FE75FE7C301B2010E94010B18161CF40D
:101500008EEF91E0A9CF2FEF3FEF4FE75FE4C701E8
:10151000B6010E94DB0C18161CF482E092E09CCF0E
:101520002FEF3FEF4FE75FECC701B6010E94010BC1
:1015300087FDF3CF20E030E0A901C701B6010E948A
:10154000010B87FF09C08DE20E948D024601570101
:10155000B7FAB094B7F8B0942AE037ED43EA5BE30A
:10156000C501B4010E94400C4B015C010E94AC0C0F
:101570006B017C010E94060B9B01AC01C501B4010B
:101580000E943F0C4B015C014AE0C701B6010E947A
:1015900008048EE20E948D0220E030E040E251E437
:1015A000C501B4010E94670B4B015C010E94AC0CA9
:1015B0006B01F12CE12C4AE0C701B6010E9408043E
:1015C000C701B6010E94060B9B01AC01C501B40125
:1015D0000E943F0C20E030E040E251E40E94670BA3
:1015E0000E94AC0C90E080E04AE00E94080436CFF4
:1015F000FB01DC0102C005900D9241505040D8F72C
:1016000008950E94430B08F481E00895E89409C00E
:1016100097FB3EF490958095709561957F4F8F4F25
:101620009F4F9923A9F0F92F96E9BB279395F6953B
:10163000879577956795B795F111F8CFFAF4BB0FB9
:1016400011F460FF1BC06F5F7F4F8F4F9F4F16C01D
:10165000882311F096E911C0772321F09EE8872FA7
:10166000762F05C0662371F096E8862F70E060E063
:101670002AF09A95660F771F881FDAF7880F9695DC
:10168000879597F90895990F0008550FAA0BE0E880
:10169000FEEF16161706E807F907C0F01216130634
:1016A000E407F50798F0621B730B840B950B39F474
:1016B0000A2661F0232B242B252B21F408950A26DA
:1016C00009F4A140A6958FEF811D811D08950E9408
:1016D0007A0B0C94EB0B0E94DD0B38F00E94E40BAC
:1016E00020F0952311F00C94D40B0C94DA0B1124F8
:1016F0000C941F0C0E94FC0B70F3959FC1F3950F87
:1017000050E0551F629FF001729FBB27F00DB11D85
:10171000639FAA27F00DB11DAA1F649F6627B00D15
:10172000A11D661F829F2227B00DA11D621F739FFE
:10173000B00DA11D621F839FA00D611D221F749F0C
:101740003327A00D611D231F849F600D211D822F53
:10175000762F6A2F11249F5750409AF0F1F088237A
:101760004AF0EE0FFF1FBB1F661F771F881F9150A7
:101770005040A9F79E3F510580F00C94D40B0C9477
:101780001F0C5F3FE4F3983ED4F3869577956795F9
:10179000B795F795E7959F5FC1F7FE2B880F911DD1
:1017A0009695879597F9089597F99F6780E870E077
:1017B00060E008959FEF80EC089500240A941616C7
:1017C000170618060906089500240A94121613062F
:1017D000140605060895092E0394000C11F48823BD
:1017E00052F0BB0F40F4BF2B11F460FF04C06F5FD9
:1017F0007F4F8F4F9F4F089557FD9058440F551FAF
:1018000059F05F3F71F04795880F97FB991F61F082
:101810009F3F79F087950895121613061406551FF9
:10182000F2CF4695F1DF08C0161617061806991F65
:10183000F1CF86957105610508940895E894BB275A
:1018400066277727CB0197F908950E94300CA59F52
:10185000900DB49F900DA49F800D911D11240895AB
:10186000A29FB001B39FC001A39F700D811D1124E1
:10187000911DB29F700D811D1124911D0895505826
:10188000BB27AA270E94570C0C94EB0B0E94DD0B80
:1018900038F00E94E40B20F039F49F3F19F426F44D
:1018A0000C94DA0B0EF4E095E7FB0C94D40BE92FC3
:1018B0000E94FC0B58F3BA17620773078407950759
:1018C00020F079F4A6F50C941E0C0EF4E0950B2E86
:1018D000BA2FA02D0B01B90190010C01CA01A00182
:1018E0001124FF27591B99F0593F50F4503E68F1DD
:1018F0001A16F040A22F232F342F4427585FF3CF1E
:10190000469537952795A795F0405395C9F77EF4EE
:101910001F16BA0B620B730B840BBAF09150A1F037
:10192000FF0FBB1F661F771F881FC2F70EC0BA0FBD
:10193000621F731F841F48F4879577956795B79545
:10194000F7959E3F08F0B0CF9395880F08F0992740
:10195000EE0F9795879508950E94040C88F09F5785
:1019600098F0B92F9927B751B0F0E1F0660F771FC3
:10197000881F991F1AF0BA95C9F714C0B13091F0B9
:101980000E941E0CB1E008950C941E0C672F782F56
:101990008827B85F39F0B93FCCF38695779567957E
:1019A000B395D9F73EF490958095709561957F4FEA
:1019B0008F4F9F4F08950E94430B08F48FEF0895B7
:1019C0000E94430B880B990B0895991B79E004C082
:1019D000991F961708F0961B881F7A95C9F780956E
:1019E0000895AA1BBB1B51E107C0AA1FBB1FA61766
:1019F000B70710F0A61BB70B881F991F5A95A9F7B8
:101A000080959095BC01CD010895A1E21A2EAA1BE4
:101A1000BB1BFD010DC0AA1FBB1FEE1FFF1FA2179E
:101A2000B307E407F50720F0A21BB30BE40BF50B9B
:101A3000661F771F881F991F1A9469F76095709524
:101A4000809590959B01AC01BD01CF010895EE0FEB
:101A5000FF1F0590F491E02D099481E090E0F89447
:081A60000C94320DF894FFCF45
:101A680053756E6461790000000000004D6F6E646C
:101A780061790000000000005475657364617900A5
:101A8800000000005765646E6573646179000000AA
:101A98005468757273646179000000004672696465
:101AA8006179000000000000536174757264617907
:101AB80000000000000000004002A001CD019202D9
:101AC800FE01DC01F001000000004C031F037B0352
:101AD80008031803920009030D0A00436F756C642C
:101AE8006E27742066696E64205254430052544332
:101AF800206C6F737420706F7765722C206C65741E
:101B0800277320736574207468652074696D652176
:101B1800002028002920002073696E6365206D6904
:101B2800646E6967687420312F312F31393730205E
:101B38003D200073203D20006400206E6F77202B2D
:101B4800203764202B203330733A200054656D70A1
:101B5800657261747572653A20006E616E00696E17
:0A1B680066006F766600204300005F
:00000001FF
